{
  "_format": "hh-sol-artifact-1",
  "contractName": "LegacyModule",
  "sourceName": "contracts/LegacyModule.sol",
  "abi": [
    {
      "inputs": [
        {
          "internalType": "address",
          "name": "_legacyGuard",
          "type": "address"
        }
      ],
      "stateMutability": "nonpayable",
      "type": "constructor"
    },
    {
      "inputs": [],
      "name": "Claimed",
      "type": "error"
    },
    {
      "inputs": [
        {
          "internalType": "address",
          "name": "",
          "type": "address"
        }
      ],
      "name": "DuplicateERC20",
      "type": "error"
    },
    {
      "inputs": [
        {
          "internalType": "address",
          "name": "",
          "type": "address"
        }
      ],
      "name": "DuplicateHeir",
      "type": "error"
    },
    {
      "inputs": [],
      "name": "DuplicateProposal",
      "type": "error"
    },
    {
      "inputs": [],
      "name": "ETHTransferFailed",
      "type": "error"
    },
    {
      "inputs": [],
      "name": "InsufficientERC20",
      "type": "error"
    },
    {
      "inputs": [],
      "name": "InsufficientETH",
      "type": "error"
    },
    {
      "inputs": [],
      "name": "InvalidERC20",
      "type": "error"
    },
    {
      "inputs": [],
      "name": "InvalidERC20List",
      "type": "error"
    },
    {
      "inputs": [],
      "name": "InvalidHeir",
      "type": "error"
    },
    {
      "inputs": [],
      "name": "InvalidHeirList",
      "type": "error"
    },
    {
      "inputs": [],
      "name": "InvalidNFTHeirParams",
      "type": "error"
    },
    {
      "inputs": [],
      "name": "NonexistERC20",
      "type": "error"
    },
    {
      "inputs": [],
      "name": "NonexistHeir",
      "type": "error"
    },
    {
      "inputs": [],
      "name": "NotConfirmed",
      "type": "error"
    },
    {
      "inputs": [],
      "name": "NotDead",
      "type": "error"
    },
    {
      "inputs": [
        {
          "internalType": "address",
          "name": "",
          "type": "address"
        }
      ],
      "name": "NotERC20Heir",
      "type": "error"
    },
    {
      "inputs": [],
      "name": "NotHeir",
      "type": "error"
    },
    {
      "inputs": [
        {
          "internalType": "address",
          "name": "",
          "type": "address"
        }
      ],
      "name": "NotSetERC20",
      "type": "error"
    },
    {
      "inputs": [],
      "name": "NotSettled",
      "type": "error"
    },
    {
      "inputs": [],
      "name": "TokenTransferFailed",
      "type": "error"
    },
    {
      "inputs": [],
      "name": "TooManyERC20s",
      "type": "error"
    },
    {
      "inputs": [],
      "name": "TooManyHeirs",
      "type": "error"
    },
    {
      "inputs": [
        {
          "internalType": "address",
          "name": "",
          "type": "address"
        },
        {
          "internalType": "address",
          "name": "",
          "type": "address"
        },
        {
          "internalType": "uint256",
          "name": "",
          "type": "uint256"
        },
        {
          "internalType": "address",
          "name": "",
          "type": "address"
        }
      ],
      "name": "WrongNFTHeir",
      "type": "error"
    },
    {
      "anonymous": false,
      "inputs": [
        {
          "indexed": true,
          "internalType": "address",
          "name": "safe",
          "type": "address"
        },
        {
          "indexed": false,
          "internalType": "address[]",
          "name": "erc20s",
          "type": "address[]"
        }
      ],
      "name": "ERC20Added",
      "type": "event"
    },
    {
      "anonymous": false,
      "inputs": [
        {
          "indexed": true,
          "internalType": "address",
          "name": "safe",
          "type": "address"
        },
        {
          "indexed": true,
          "internalType": "address",
          "name": "token",
          "type": "address"
        },
        {
          "indexed": true,
          "internalType": "address",
          "name": "heir",
          "type": "address"
        },
        {
          "indexed": false,
          "internalType": "uint256",
          "name": "portion",
          "type": "uint256"
        }
      ],
      "name": "ERC20Claimed",
      "type": "event"
    },
    {
      "anonymous": false,
      "inputs": [
        {
          "indexed": true,
          "internalType": "address",
          "name": "safe",
          "type": "address"
        },
        {
          "indexed": false,
          "internalType": "address[]",
          "name": "erc20s",
          "type": "address[]"
        }
      ],
      "name": "ERC20Removed",
      "type": "event"
    },
    {
      "anonymous": false,
      "inputs": [
        {
          "indexed": true,
          "internalType": "address",
          "name": "safe",
          "type": "address"
        },
        {
          "indexed": false,
          "internalType": "address[]",
          "name": "erc20Tokens",
          "type": "address[]"
        }
      ],
      "name": "ERC20TokensSet",
      "type": "event"
    },
    {
      "anonymous": false,
      "inputs": [
        {
          "indexed": true,
          "internalType": "address",
          "name": "safe",
          "type": "address"
        },
        {
          "indexed": true,
          "internalType": "address",
          "name": "token",
          "type": "address"
        },
        {
          "indexed": true,
          "internalType": "address",
          "name": "heir",
          "type": "address"
        },
        {
          "indexed": false,
          "internalType": "uint256",
          "name": "tokenId",
          "type": "uint256"
        }
      ],
      "name": "ERC721Claimed",
      "type": "event"
    },
    {
      "anonymous": false,
      "inputs": [
        {
          "indexed": true,
          "internalType": "address",
          "name": "safe",
          "type": "address"
        },
        {
          "indexed": true,
          "internalType": "address",
          "name": "heir",
          "type": "address"
        },
        {
          "indexed": false,
          "internalType": "uint256",
          "name": "portion",
          "type": "uint256"
        }
      ],
      "name": "ETHClaimed",
      "type": "event"
    },
    {
      "anonymous": false,
      "inputs": [
        {
          "indexed": true,
          "internalType": "address",
          "name": "safe",
          "type": "address"
        },
        {
          "indexed": false,
          "internalType": "address[]",
          "name": "heirs",
          "type": "address[]"
        }
      ],
      "name": "HeirsAdded",
      "type": "event"
    },
    {
      "anonymous": false,
      "inputs": [
        {
          "indexed": true,
          "internalType": "address",
          "name": "safe",
          "type": "address"
        },
        {
          "indexed": false,
          "internalType": "address[]",
          "name": "heirs",
          "type": "address[]"
        }
      ],
      "name": "HeirsRemoved",
      "type": "event"
    },
    {
      "anonymous": false,
      "inputs": [
        {
          "indexed": true,
          "internalType": "address",
          "name": "safe",
          "type": "address"
        },
        {
          "indexed": false,
          "internalType": "address[]",
          "name": "heirs",
          "type": "address[]"
        }
      ],
      "name": "HeirsSet",
      "type": "event"
    },
    {
      "anonymous": false,
      "inputs": [
        {
          "indexed": true,
          "internalType": "address",
          "name": "safe",
          "type": "address"
        },
        {
          "indexed": false,
          "internalType": "address[]",
          "name": "nftAddress",
          "type": "address[]"
        },
        {
          "indexed": false,
          "internalType": "uint256[]",
          "name": "tokenId",
          "type": "uint256[]"
        },
        {
          "indexed": false,
          "internalType": "address[]",
          "name": "heir",
          "type": "address[]"
        }
      ],
      "name": "NFTHeirRemoved",
      "type": "event"
    },
    {
      "anonymous": false,
      "inputs": [
        {
          "indexed": true,
          "internalType": "address",
          "name": "safe",
          "type": "address"
        },
        {
          "indexed": false,
          "internalType": "address[]",
          "name": "nftAddress",
          "type": "address[]"
        },
        {
          "indexed": false,
          "internalType": "uint256[]",
          "name": "tokenId",
          "type": "uint256[]"
        },
        {
          "indexed": false,
          "internalType": "address[]",
          "name": "heir",
          "type": "address[]"
        }
      ],
      "name": "NFTHeirSet",
      "type": "event"
    },
    {
      "anonymous": false,
      "inputs": [
        {
          "indexed": false,
          "internalType": "uint256",
          "name": "timestamp",
          "type": "uint256"
        }
      ],
      "name": "Propose",
      "type": "event"
    },
    {
      "anonymous": false,
      "inputs": [
        {
          "indexed": true,
          "internalType": "address",
          "name": "safe",
          "type": "address"
        }
      ],
      "name": "Settled",
      "type": "event"
    },
    {
      "inputs": [
        {
          "internalType": "address[]",
          "name": "heir",
          "type": "address[]"
        }
      ],
      "name": "addERC20Heirs",
      "outputs": [],
      "stateMutability": "nonpayable",
      "type": "function"
    },
    {
      "inputs": [
        {
          "internalType": "address[]",
          "name": "_erc20Tokens",
          "type": "address[]"
        }
      ],
      "name": "addERC20Tokens",
      "outputs": [],
      "stateMutability": "nonpayable",
      "type": "function"
    },
    {
      "inputs": [
        {
          "internalType": "address",
          "name": "safe",
          "type": "address"
        },
        {
          "internalType": "address",
          "name": "token",
          "type": "address"
        },
        {
          "internalType": "address",
          "name": "heir",
          "type": "address"
        }
      ],
      "name": "claimERC20",
      "outputs": [],
      "stateMutability": "nonpayable",
      "type": "function"
    },
    {
      "inputs": [
        {
          "internalType": "address",
          "name": "safe",
          "type": "address"
        },
        {
          "internalType": "address",
          "name": "nft",
          "type": "address"
        },
        {
          "internalType": "uint256",
          "name": "tokenId",
          "type": "uint256"
        },
        {
          "internalType": "address",
          "name": "heir",
          "type": "address"
        }
      ],
      "name": "claimERC721",
      "outputs": [],
      "stateMutability": "nonpayable",
      "type": "function"
    },
    {
      "inputs": [
        {
          "internalType": "address",
          "name": "safe",
          "type": "address"
        },
        {
          "internalType": "address",
          "name": "heir",
          "type": "address"
        }
      ],
      "name": "claimETH",
      "outputs": [],
      "stateMutability": "nonpayable",
      "type": "function"
    },
    {
      "inputs": [
        {
          "internalType": "address",
          "name": "",
          "type": "address"
        },
        {
          "internalType": "address",
          "name": "",
          "type": "address"
        },
        {
          "internalType": "address",
          "name": "",
          "type": "address"
        }
      ],
      "name": "claimed",
      "outputs": [
        {
          "internalType": "bool",
          "name": "",
          "type": "bool"
        }
      ],
      "stateMutability": "view",
      "type": "function"
    },
    {
      "inputs": [],
      "name": "dead_period",
      "outputs": [
        {
          "internalType": "uint256",
          "name": "",
          "type": "uint256"
        }
      ],
      "stateMutability": "view",
      "type": "function"
    },
    {
      "inputs": [
        {
          "internalType": "address",
          "name": "",
          "type": "address"
        },
        {
          "internalType": "address",
          "name": "",
          "type": "address"
        }
      ],
      "name": "finalBalancePer",
      "outputs": [
        {
          "internalType": "uint256",
          "name": "",
          "type": "uint256"
        }
      ],
      "stateMutability": "view",
      "type": "function"
    },
    {
      "inputs": [
        {
          "internalType": "address",
          "name": "safe",
          "type": "address"
        },
        {
          "internalType": "address",
          "name": "heir",
          "type": "address"
        }
      ],
      "name": "isERC20Heir",
      "outputs": [
        {
          "internalType": "bool",
          "name": "",
          "type": "bool"
        }
      ],
      "stateMutability": "view",
      "type": "function"
    },
    {
      "inputs": [
        {
          "internalType": "address",
          "name": "safe",
          "type": "address"
        },
        {
          "internalType": "address",
          "name": "erc20",
          "type": "address"
        }
      ],
      "name": "isERC20Set",
      "outputs": [
        {
          "internalType": "bool",
          "name": "",
          "type": "bool"
        }
      ],
      "stateMutability": "view",
      "type": "function"
    },
    {
      "inputs": [],
      "name": "legacyGuard",
      "outputs": [
        {
          "internalType": "contract IGuard",
          "name": "",
          "type": "address"
        }
      ],
      "stateMutability": "view",
      "type": "function"
    },
    {
      "inputs": [
        {
          "internalType": "address",
          "name": "",
          "type": "address"
        },
        {
          "internalType": "address",
          "name": "",
          "type": "address"
        },
        {
          "internalType": "uint256",
          "name": "",
          "type": "uint256"
        }
      ],
      "name": "nftHeir",
      "outputs": [
        {
          "internalType": "address",
          "name": "",
          "type": "address"
        }
      ],
      "stateMutability": "view",
      "type": "function"
    },
    {
      "inputs": [],
      "name": "proposal_time_lock",
      "outputs": [
        {
          "internalType": "uint256",
          "name": "",
          "type": "uint256"
        }
      ],
      "stateMutability": "view",
      "type": "function"
    },
    {
      "inputs": [
        {
          "internalType": "address",
          "name": "",
          "type": "address"
        }
      ],
      "name": "proposals",
      "outputs": [
        {
          "internalType": "uint256",
          "name": "",
          "type": "uint256"
        }
      ],
      "stateMutability": "view",
      "type": "function"
    },
    {
      "inputs": [
        {
          "internalType": "address",
          "name": "safe",
          "type": "address"
        }
      ],
      "name": "propose",
      "outputs": [],
      "stateMutability": "nonpayable",
      "type": "function"
    },
    {
      "inputs": [
        {
          "internalType": "address[]",
          "name": "heir",
          "type": "address[]"
        }
      ],
      "name": "removeERC20Heirs",
      "outputs": [],
      "stateMutability": "nonpayable",
      "type": "function"
    },
    {
      "inputs": [
        {
          "internalType": "address[]",
          "name": "_erc20Tokens",
          "type": "address[]"
        }
      ],
      "name": "removeERC20Tokens",
      "outputs": [],
      "stateMutability": "nonpayable",
      "type": "function"
    },
    {
      "inputs": [
        {
          "internalType": "address[]",
          "name": "nftAddress",
          "type": "address[]"
        },
        {
          "internalType": "uint256[]",
          "name": "tokenId",
          "type": "uint256[]"
        },
        {
          "internalType": "address[]",
          "name": "heir",
          "type": "address[]"
        }
      ],
      "name": "removeNFTHeir",
      "outputs": [],
      "stateMutability": "nonpayable",
      "type": "function"
    },
    {
      "inputs": [
        {
          "internalType": "address[]",
          "name": "heir",
          "type": "address[]"
        }
      ],
      "name": "setERC20Heirs",
      "outputs": [],
      "stateMutability": "nonpayable",
      "type": "function"
    },
    {
      "inputs": [
        {
          "internalType": "address[]",
          "name": "_erc20Tokens",
          "type": "address[]"
        }
      ],
      "name": "setERC20Tokens",
      "outputs": [],
      "stateMutability": "nonpayable",
      "type": "function"
    },
    {
      "inputs": [
        {
          "internalType": "address[]",
          "name": "nftAddress",
          "type": "address[]"
        },
        {
          "internalType": "uint256[]",
          "name": "tokenId",
          "type": "uint256[]"
        },
        {
          "internalType": "address[]",
          "name": "heir",
          "type": "address[]"
        }
      ],
      "name": "setNFTHeir",
      "outputs": [],
      "stateMutability": "nonpayable",
      "type": "function"
    },
    {
      "inputs": [
        {
          "internalType": "address",
          "name": "safe",
          "type": "address"
        }
      ],
      "name": "settle",
      "outputs": [],
      "stateMutability": "nonpayable",
      "type": "function"
    },
    {
      "inputs": [
        {
          "internalType": "address",
          "name": "",
          "type": "address"
        }
      ],
      "name": "settled",
      "outputs": [
        {
          "internalType": "bool",
          "name": "",
          "type": "bool"
        }
      ],
      "stateMutability": "view",
      "type": "function"
    }
  ],
  "bytecode": "0x60c06040523480156200001157600080fd5b506040516200262538038062002625833981016040819052620000349162000064565b600080546001600160a01b0319166001600160a01b039290921691909117905560b4608052603c60a05262000096565b6000602082840312156200007757600080fd5b81516001600160a01b03811681146200008f57600080fd5b9392505050565b60805160a051612554620000d1600039600081816102fa0152610d89015260008181610334015281816104a90152610d2501526125546000f3fe608060405234801561001057600080fd5b506004361061018d5760003560e01c806393b9db5c116100e3578063cbf09d3e1161008c578063e660b06611610066578063e660b066146103e0578063f4fefcb014610403578063f7a9d8821461041657600080fd5b8063cbf09d3e1461038f578063dccb6693146103ba578063e485873d146103cd57600080fd5b8063c574ef19116100bd578063c574ef1914610356578063c79afe2814610369578063cb41d8ce1461037c57600080fd5b806393b9db5c146102f557806393db940f1461031c5780639aec8e1d1461032f57600080fd5b8063356c487c116101455780636a256b291161011f5780636a256b29146102955780636e039b20146102a857806389034555146102e257600080fd5b8063356c487c146102445780634370c03e146102575780635d8ab98b1461026a57600080fd5b80631a5289a9116101765780631a5289a9146101ba57806328028482146102035780633341b4451461021657600080fd5b806301267951146101925780630b436a35146101a7575b600080fd5b6101a56101a0366004612051565b610429565b005b6101a56101b53660046120b8565b610593565b6101ee6101c83660046120fa565b600660209081526000938452604080852082529284528284209052825290205460ff1681565b60405190151581526020015b60405180910390f35b6101a56102113660046120b8565b610767565b610236610224366004612051565b60046020526000908152604090205481565b6040519081526020016101fa565b6101a56102523660046120b8565b61092c565b6101a561026536600461213d565b610a77565b60005461027d906001600160a01b031681565b6040516001600160a01b0390911681526020016101fa565b6101a56102a3366004612051565b610c8c565b61027d6102b636600461218a565b60036020908152600093845260408085208252928452828420905282529020546001600160a01b031681565b6101a56102f03660046121c6565b610e32565b6102367f000000000000000000000000000000000000000000000000000000000000000081565b6101a561032a3660046120b8565b611028565b6102367f000000000000000000000000000000000000000000000000000000000000000081565b6101a56103643660046120b8565b611163565b6101ee610377366004612260565b611276565b6101a561038a3660046121c6565b6112a1565b61023661039d366004612260565b600560209081526000928352604080842090915290825290205481565b6101a56103c8366004612260565b6115a1565b6101a56103db3660046120b8565b6118c3565b6101ee6103ee366004612051565b60076020526000908152604090205460ff1681565b6101a56104113660046120fa565b611a0c565b6101ee610424366004612260565b611e0b565b60008060009054906101000a90046001600160a01b03166001600160a01b03166394033ebd6040518163ffffffff1660e01b8152600401602060405180830381865afa15801561047d573d6000803e3d6000fd5b505050506040513d601f19601f820116820180604052508101906104a19190612293565b9050426104ce7f0000000000000000000000000000000000000000000000000000000000000000836122c2565b106104ec57604051634a8f85e960e11b815260040160405180910390fd5b6001600160a01b03821660009081526004602052604090205481101561053e576040517f90c0d69600000000000000000000000000000000000000000000000000000000815260040160405180910390fd5b6001600160a01b038216600090815260046020908152604091829020429081905591519182527fa963894ed7d980b52c0f4b9a5a742f906a254ceb52c8717ca5ad628ded973b86910160405180910390a15050565b601e8111806105a0575080155b156105be5760405163afade9bd60e01b815260040160405180910390fd5b336000908152600260205260408120906105d782611e2d565b905060005b815181101561061a576106118282815181106105fa576105fa6122d5565b602002602001015184611e4190919063ffffffff16565b506001016105dc565b5060005b8381101561071d57600085858381811061063a5761063a6122d5565b905060200201602081019061064f9190612051565b6001600160a01b03160361067657604051630eca12dd60e31b815260040160405180910390fd5b6106a785858381811061068b5761068b6122d5565b90506020020160208101906106a09190612051565b8490611e56565b610715578484828181106106bd576106bd6122d5565b90506020020160208101906106d29190612051565b6040517f52f3dab60000000000000000000000000000000000000000000000000000000081526001600160a01b0390911660048201526024015b60405180910390fd5b60010161061e565b50336001600160a01b03167fef072245167d97507f8017f62634f5ccb3f2b5cea0a3687667b46d49d746648f8585604051610759929190612332565b60405180910390a250505050565b6000819003610789576040516333d95d0d60e21b815260040160405180910390fd5b336000908152600160205260409020600a826107a483611e6b565b6107ae91906122c2565b11156107e6576040517f6196e4b800000000000000000000000000000000000000000000000000000000815260040160405180910390fd5b60005b828110156108e3576000848483818110610805576108056122d5565b905060200201602081019061081a9190612051565b6001600160a01b0316036108415760405163766ae75760e11b815260040160405180910390fd5b610872848483818110610856576108566122d5565b905060200201602081019061086b9190612051565b8390611e56565b6108db57838382818110610888576108886122d5565b905060200201602081019061089d9190612051565b6040517f4bfbfa240000000000000000000000000000000000000000000000000000000081526001600160a01b03909116600482015260240161070c565b6001016107e9565b50336001600160a01b03167f9fe1d378a4bbe4b643e612e79b950a3254c7fac7801c73626e3ba3a75ac09086848460405161091f929190612332565b60405180910390a2505050565b600081900361094e576040516333d95d0d60e21b815260040160405180910390fd5b336000908152600160205260408120905b82811015610a3b5761099884848381811061097c5761097c6122d5565b90506020020160208101906109919190612051565b8390611e75565b610a01578383828181106109ae576109ae6122d5565b90506020020160208101906109c39190612051565b6040517fb1d886570000000000000000000000000000000000000000000000000000000081526001600160a01b03909116600482015260240161070c565b610a32848483818110610a1657610a166122d5565b9050602002016020810190610a2b9190612051565b8390611e41565b5060010161095f565b50336001600160a01b03167f052656a1e989657d4a5f05546affbf4018d29620fb23b9b915e85f7c0de778f0848460405161091f929190612332565b6001600160a01b03841660009081526007602052604090205460ff16610ab05760405163ba329a9b60e01b815260040160405180910390fd5b6001600160a01b03848116600090815260036020908152604080832087851684528252808320868452909152902054811690821614610b1b576040517f8419e55000000000000000000000000000000000000000000000000000000000815260040160405180910390fd5b6040516001600160a01b038086166024830152821660448201526064810183905260009060840160408051601f198184030181529181526020820180517bffffffffffffffffffffffffffffffffffffffffffffffffffffffff167f23b872dd000000000000000000000000000000000000000000000000000000001790525163468721a760e01b81529091506001600160a01b0386169063468721a790610bce90879060009086908290600401612370565b6020604051808303816000875af1158015610bed573d6000803e3d6000fd5b505050506040513d601f19601f82011682018060405250810190610c1191906123e4565b610c2e5760405163022e258160e11b815260040160405180910390fd5b816001600160a01b0316846001600160a01b0316866001600160a01b03167f6564f48f177e41e345d2183fe4cec34dab8b183fcb99fb2193f5c3126c20803186604051610c7d91815260200190565b60405180910390a45050505050565b60008060009054906101000a90046001600160a01b03166001600160a01b03166394033ebd6040518163ffffffff1660e01b8152600401602060405180830381865afa158015610ce0573d6000803e3d6000fd5b505050506040513d601f19601f82011682018060405250810190610d049190612293565b6001600160a01b038316600090815260046020526040902054909150610d4a7f0000000000000000000000000000000000000000000000000000000000000000836122c2565b10610d6857604051634a8f85e960e11b815260040160405180910390fd5b6001600160a01b0382166000908152600460205260409020544290610dae907f0000000000000000000000000000000000000000000000000000000000000000906122c2565b10610de5576040517fe471069a00000000000000000000000000000000000000000000000000000000815260040160405180910390fd5b6001600160a01b038216600081815260076020526040808220805460ff19166001179055517fefb6205dbe155ded2c6cd1c00ae5941f650b076f7ea0823645364b1aa1b418a49190a25050565b8415801590610e4057508483145b8015610e4b57508481145b610e6857604051632e93b16760e11b815260040160405180910390fd5b60005b85811015610fd4576000878783818110610e8757610e876122d5565b9050602002016020810190610e9c9190612051565b6001600160a01b03161480610ee057506000838383818110610ec057610ec06122d5565b9050602002016020810190610ed59190612051565b6001600160a01b0316145b15610efe57604051632e93b16760e11b815260040160405180910390fd5b828282818110610f1057610f106122d5565b9050602002016020810190610f259190612051565b33600090815260036020526040812090898985818110610f4757610f476122d5565b9050602002016020810190610f5c9190612051565b6001600160a01b03166001600160a01b031681526020019081526020016000206000878785818110610f9057610f906122d5565b90506020020135815260200190815260200160002060006101000a8154816001600160a01b0302191690836001600160a01b03160217905550806001019050610e6b565b50336001600160a01b03167fcc77b46b919b3039716541ca4c5e19c912411847b33b0fa8ea84e716eda5040587878787878760405161101896959493929190612406565b60405180910390a2505050505050565b600a811180611035575080155b15611053576040516333d95d0d60e21b815260040160405180910390fd5b3360009081526001602052604081209061106c82611e2d565b905060005b81518110156110985761108f8282815181106105fa576105fa6122d5565b50600101611071565b5060005b838110156111275760008585838181106110b8576110b86122d5565b90506020020160208101906110cd9190612051565b6001600160a01b0316036110f45760405163766ae75760e11b815260040160405180910390fd5b61110985858381811061068b5761068b6122d5565b61111f57848482818110610888576108886122d5565b60010161109c565b50336001600160a01b03167f088cca573e54e816f52336287e4d2a3bc710c258eb7dfeac1c92f67e77f6da7c8585604051610759929190612332565b60008190036111855760405163afade9bd60e01b815260040160405180910390fd5b336000908152600260205260408120905b8281101561123a576111b384848381811061097c5761097c6122d5565b61121c578383828181106111c9576111c96122d5565b90506020020160208101906111de9190612051565b6040517f63175ab10000000000000000000000000000000000000000000000000000000081526001600160a01b03909116600482015260240161070c565b611231848483818110610a1657610a166122d5565b50600101611196565b50336001600160a01b03167f8819dc8fa45e8b62009e1d7cee2c970cf40b8b9bec2b3b1118218e1e86906dde848460405161091f929190612332565b6001600160a01b03821660009081526002602052604081206112989083611e75565b90505b92915050565b84158015906112af57508483145b80156112ba57508481145b6112d757604051632e93b16760e11b815260040160405180910390fd5b60005b8581101561155d578282828181106112f4576112f46122d5565b90506020020160208101906113099190612051565b3360009081526003602052604081206001600160a01b03929092169190898985818110611338576113386122d5565b905060200201602081019061134d9190612051565b6001600160a01b03166001600160a01b031681526020019081526020016000206000878785818110611381576113816122d5565b60209081029290920135835250810191909152604001600020546001600160a01b03161415806113e0575060008383838181106113c0576113c06122d5565b90506020020160208101906113d59190612051565b6001600160a01b0316145b156114a357338787838181106113f8576113f86122d5565b905060200201602081019061140d9190612051565b86868481811061141f5761141f6122d5565b90506020020135858585818110611438576114386122d5565b905060200201602081019061144d9190612051565b6040517f37b5f6db0000000000000000000000000000000000000000000000000000000081526001600160a01b03948516600482015292841660248401526044830191909152909116606482015260840161070c565b336000908152600360205260408120908888848181106114c5576114c56122d5565b90506020020160208101906114da9190612051565b6001600160a01b03166001600160a01b03168152602001908152602001600020600086868481811061150e5761150e6122d5565b6020908102929092013583525081019190915260400160002080547fffffffffffffffffffffffff000000000000000000000000000000000000000016905561155681612485565b90506112da565b50336001600160a01b03167f6a2f7cd73f0a43ac830b3d6b2db4937c8ad75c7f2b33516db8db59100e6a6d9287878787878760405161101896959493929190612406565b6001600160a01b03821660009081526007602052604090205460ff166115da5760405163ba329a9b60e01b815260040160405180910390fd5b6001600160a01b03821660009081526001602052604090206115fc8183611e75565b6116195760405163720dbb1760e11b815260040160405180910390fd5b6001600160a01b038316600090815260056020908152604080832073eeeeeeeeeeeeeeeeeeeeeeeeeeeeeeeeeeeeeeee845290915281205490036116af576001600160a01b0383163161166b82611e6b565b611675908261249e565b6001600160a01b038516600090815260056020908152604080832073eeeeeeeeeeeeeeeeeeeeeeeeeeeeeeeeeeeeeeee8452909152902055505b6001600160a01b038316600090815260056020908152604080832073eeeeeeeeeeeeeeeeeeeeeeeeeeeeeeeeeeeeeeee845290915281205490819003611721576040517f6a12f10400000000000000000000000000000000000000000000000000000000815260040160405180910390fd5b6001600160a01b03808516600090815260066020908152604080832073eeeeeeeeeeeeeeeeeeeeeeeeeeeeeeeeeeeeeeee845282528083209387168352929052205460ff1615611784576040516317968e5360e31b815260040160405180910390fd5b6001600160a01b03808516600081815260066020908152604080832073eeeeeeeeeeeeeeeeeeeeeeeeeeeeeeeeeeeeeeee845282528083209488168352939052828120805460ff19166001179055915163468721a760e01b8152909163468721a7916117f79187918691906004016124c0565b6020604051808303816000875af1158015611816573d6000803e3d6000fd5b505050506040513d601f19601f8201168201806040525081019061183a91906123e4565b611870576040517fb12d13eb00000000000000000000000000000000000000000000000000000000815260040160405180910390fd5b826001600160a01b0316846001600160a01b03167f81bfb395a613b7b5eeaec6ac330051b8b723aa455649a52ecd5d0784b95c69d2836040516118b591815260200190565b60405180910390a350505050565b60008190036118e55760405163afade9bd60e01b815260040160405180910390fd5b336000908152600260205260409020601e8261190083611e6b565b61190a91906122c2565b1115611942576040517f35cbb7b200000000000000000000000000000000000000000000000000000000815260040160405180910390fd5b60005b828110156119d0576000848483818110611961576119616122d5565b90506020020160208101906119769190612051565b6001600160a01b03160361199d57604051630eca12dd60e31b815260040160405180910390fd5b6119b2848483818110610856576108566122d5565b6119c8578383828181106106bd576106bd6122d5565b600101611945565b50336001600160a01b03167fded45e042302cea290e3b8ed12fd2bd0ed7c471b20027a95048021e557c93db1848460405161091f929190612332565b6001600160a01b03831660009081526007602052604090205460ff16611a455760405163ba329a9b60e01b815260040160405180910390fd5b6001600160a01b0383166000908152600260205260409020611a679083611e75565b611a9d576040517fa84d2b9c00000000000000000000000000000000000000000000000000000000815260040160405180910390fd5b6001600160a01b0383166000908152600160205260409020611abf8183611e75565b611adc5760405163720dbb1760e11b815260040160405180910390fd5b6001600160a01b0380851660009081526005602090815260408083209387168352929052908120549003611bce576040517f70a082310000000000000000000000000000000000000000000000000000000081526001600160a01b038581166004830152600091908516906370a0823190602401602060405180830381865afa158015611b6d573d6000803e3d6000fd5b505050506040513d601f19601f82011682018060405250810190611b919190612293565b9050611b9c82611e6b565b611ba6908261249e565b6001600160a01b03808716600090815260056020908152604080832093891683529290522055505b6001600160a01b03808516600090815260056020908152604080832093871683529290529081205490819003611c30576040517f5d052a9300000000000000000000000000000000000000000000000000000000815260040160405180910390fd5b6001600160a01b038086166000908152600660209081526040808320888516845282528083209387168352929052205460ff1615611c81576040516317968e5360e31b815260040160405180910390fd5b6001600160a01b03858116600081815260066020908152604080832089861684528252808320948816808452948252808320805460ff19166001179055805160248101959095526044808601879052815180870390910181526064909501815290840180517bffffffffffffffffffffffffffffffffffffffffffffffffffffffff167fa9059cbb000000000000000000000000000000000000000000000000000000001790525163468721a760e01b815263468721a791611d4c9189919086908290600401612370565b6020604051808303816000875af1158015611d6b573d6000803e3d6000fd5b505050506040513d601f19601f82011682018060405250810190611d8f91906123e4565b611dac5760405163022e258160e11b815260040160405180910390fd5b836001600160a01b0316856001600160a01b0316876001600160a01b03167ff15b4a917680e4fb479db7640331eb3db831672f5654e014110e0508a1a3badc85604051611dfb91815260200190565b60405180910390a4505050505050565b6001600160a01b03821660009081526001602052604081206112989083611e75565b60606000611e3a83611e97565b9392505050565b6000611298836001600160a01b038416611ef3565b6000611298836001600160a01b038416611fe6565b600061129b825490565b6001600160a01b03811660009081526001830160205260408120541515611298565b606081600001805480602002602001604051908101604052809291908181526020018280548015611ee757602002820191906000526020600020905b815481526020019060010190808311611ed3575b50505050509050919050565b60008181526001830160205260408120548015611fdc576000611f176001836124f5565b8554909150600090611f2b906001906124f5565b9050818114611f90576000866000018281548110611f4b57611f4b6122d5565b9060005260206000200154905080876000018481548110611f6e57611f6e6122d5565b6000918252602080832090910192909255918252600188019052604090208390555b8554869080611fa157611fa1612508565b60019003818190600052602060002001600090559055856001016000868152602001908152602001600020600090556001935050505061129b565b600091505061129b565b600081815260018301602052604081205461202d5750815460018181018455600084815260208082209093018490558454848252828601909352604090209190915561129b565b50600061129b565b80356001600160a01b038116811461204c57600080fd5b919050565b60006020828403121561206357600080fd5b61129882612035565b60008083601f84011261207e57600080fd5b50813567ffffffffffffffff81111561209657600080fd5b6020830191508360208260051b85010111156120b157600080fd5b9250929050565b600080602083850312156120cb57600080fd5b823567ffffffffffffffff8111156120e257600080fd5b6120ee8582860161206c565b90969095509350505050565b60008060006060848603121561210f57600080fd5b61211884612035565b925061212660208501612035565b915061213460408501612035565b90509250925092565b6000806000806080858703121561215357600080fd5b61215c85612035565b935061216a60208601612035565b92506040850135915061217f60608601612035565b905092959194509250565b60008060006060848603121561219f57600080fd5b6121a884612035565b92506121b660208501612035565b9150604084013590509250925092565b600080600080600080606087890312156121df57600080fd5b863567ffffffffffffffff808211156121f757600080fd5b6122038a838b0161206c565b9098509650602089013591508082111561221c57600080fd5b6122288a838b0161206c565b9096509450604089013591508082111561224157600080fd5b5061224e89828a0161206c565b979a9699509497509295939492505050565b6000806040838503121561227357600080fd5b61227c83612035565b915061228a60208401612035565b90509250929050565b6000602082840312156122a557600080fd5b5051919050565b634e487b7160e01b600052601160045260246000fd5b8082018082111561129b5761129b6122ac565b634e487b7160e01b600052603260045260246000fd5b8183526000602080850194508260005b85811015612327576001600160a01b0361231483612035565b16875295820195908201906001016122fb565b509495945050505050565b6020815260006123466020830184866122eb565b949350505050565b6002811061236c57634e487b7160e01b600052602160045260246000fd5b9052565b6001600160a01b038516815260006020858184015260806040840152845180608085015260005b818110156123b35786810183015185820160a001528201612397565b50600060a0828601015260a0601f19601f830116850101925050506123db606083018461234e565b95945050505050565b6000602082840312156123f657600080fd5b81518015158114611e3a57600080fd5b60608152600061241a60608301888a6122eb565b82810360208401528581527f07ffffffffffffffffffffffffffffffffffffffffffffffffffffffffffffff86111561245257600080fd5b8560051b80886020840137018281036020908101604085015261247890820185876122eb565b9998505050505050505050565b600060018201612497576124976122ac565b5060010190565b6000826124bb57634e487b7160e01b600052601260045260246000fd5b500490565b6001600160a01b03841681528260208201526080604082015260006080820152600060a082019050612346606083018461234e565b8181038181111561129b5761129b6122ac565b634e487b7160e01b600052603160045260246000fdfea2646970667358221220d9d0c9cf8e4e62b950e11e8d1c6e9c717fcf5ae1c744a10aa7887f856e2f181664736f6c63430008130033",
  "linkReferences": {},
  "deployedLinkReferences": {}
}