{
  "_format": "hh-sol-artifact-1",
  "contractName": "LegacyGuard",
  "sourceName": "contracts/LegacyGuard.sol",
  "abi": [
    {
      "inputs": [
        {
          "internalType": "bytes32",
          "name": "txHash",
          "type": "bytes32"
        },
        {
          "internalType": "bool",
          "name": "success",
          "type": "bool"
        }
      ],
      "name": "checkAfterExecution",
      "outputs": [],
      "stateMutability": "nonpayable",
      "type": "function"
    },
    {
      "inputs": [
        {
          "internalType": "address",
          "name": "to",
          "type": "address"
        },
        {
          "internalType": "uint256",
          "name": "value",
          "type": "uint256"
        },
        {
          "internalType": "bytes",
          "name": "data",
          "type": "bytes"
        },
        {
          "internalType": "enum Enum.Operation",
          "name": "operation",
          "type": "uint8"
        },
        {
          "internalType": "uint256",
          "name": "safeTxGas",
          "type": "uint256"
        },
        {
          "internalType": "uint256",
          "name": "baseGas",
          "type": "uint256"
        },
        {
          "internalType": "uint256",
          "name": "gasPrice",
          "type": "uint256"
        },
        {
          "internalType": "address",
          "name": "gasToken",
          "type": "address"
        },
        {
          "internalType": "address payable",
          "name": "refundReceiver",
          "type": "address"
        },
        {
          "internalType": "bytes",
          "name": "signatures",
          "type": "bytes"
        },
        {
          "internalType": "address",
          "name": "msgSender",
          "type": "address"
        }
      ],
      "name": "checkTransaction",
      "outputs": [],
      "stateMutability": "nonpayable",
      "type": "function"
    },
    {
      "inputs": [],
      "name": "lastUsed",
      "outputs": [
        {
          "internalType": "uint256",
          "name": "",
          "type": "uint256"
        }
      ],
      "stateMutability": "view",
      "type": "function"
    },
    {
      "inputs": [
        {
          "internalType": "bytes4",
          "name": "interfaceId",
          "type": "bytes4"
        }
      ],
      "name": "supportsInterface",
      "outputs": [
        {
          "internalType": "bool",
          "name": "",
          "type": "bool"
        }
      ],
      "stateMutability": "view",
      "type": "function"
    }
  ],
  "bytecode": "0x608060405234801561001057600080fd5b506103e9806100206000396000f3fe608060405234801561001057600080fd5b506004361061004c5760003560e01c806301ffc9a71461005157806375f0bb5214610079578063932713681461009657806394033ebd146100ac575b600080fd5b61006461005f36600461015c565b6100c3565b60405190151581526020015b60405180910390f35b610094610087366004610299565b5050505050505050505050565b005b6100946100a436600461037e565b505042600055565b6100b560005481565b604051908152602001610070565b60007fffffffff0000000000000000000000000000000000000000000000000000000082167fe6d7a83a00000000000000000000000000000000000000000000000000000000148061015657507fffffffff0000000000000000000000000000000000000000000000000000000082167f01ffc9a700000000000000000000000000000000000000000000000000000000145b92915050565b60006020828403121561016e57600080fd5b81357fffffffff000000000000000000000000000000000000000000000000000000008116811461019e57600080fd5b9392505050565b803573ffffffffffffffffffffffffffffffffffffffff811681146101c957600080fd5b919050565b7f4e487b7100000000000000000000000000000000000000000000000000000000600052604160045260246000fd5b600082601f83011261020e57600080fd5b813567ffffffffffffffff80821115610229576102296101ce565b604051601f8301601f19908116603f01168101908282118183101715610251576102516101ce565b8160405283815286602085880101111561026a57600080fd5b836020870160208301376000602085830101528094505050505092915050565b8035600281106101c957600080fd5b60008060008060008060008060008060006101608c8e0312156102bb57600080fd5b6102c48c6101a5565b9a5060208c0135995067ffffffffffffffff8060408e013511156102e757600080fd5b6102f78e60408f01358f016101fd565b995061030560608e0161028a565b985060808d0135975060a08d0135965060c08d0135955061032860e08e016101a5565b94506103376101008e016101a5565b9350806101208e0135111561034b57600080fd5b5061035d8d6101208e01358e016101fd565b915061036c6101408d016101a5565b90509295989b509295989b9093969950565b6000806040838503121561039157600080fd5b82359150602083013580151581146103a857600080fd5b80915050925092905056fea2646970667358221220a587ac3fde1fb6623f2bbf83e853543fdcbc15e6fc2ffbc6f4a9a45ac852256d64736f6c63430008130033",
  "linkReferences": {},
  "deployedLinkReferences": {}
}