{
  "_format": "hh-sol-artifact-1",
  "contractName": "LegacyModule",
  "sourceName": "contracts/LegacyModule.sol",
  "abi": [
    {
      "inputs": [
        {
          "internalType": "address",
          "name": "_legacyGuard",
          "type": "address"
        }
      ],
      "stateMutability": "nonpayable",
      "type": "constructor"
    },
    {
      "inputs": [],
      "name": "Claimed",
      "type": "error"
    },
    {
      "inputs": [],
      "name": "DuplicateERC20",
      "type": "error"
    },
    {
      "inputs": [],
      "name": "DuplicateHeir",
      "type": "error"
    },
    {
      "inputs": [],
      "name": "DuplicateProposal",
      "type": "error"
    },
    {
      "inputs": [],
      "name": "ETHTransferFailed",
      "type": "error"
    },
    {
      "inputs": [],
      "name": "InsufficientERC20",
      "type": "error"
    },
    {
      "inputs": [],
      "name": "InsufficientETH",
      "type": "error"
    },
    {
      "inputs": [],
      "name": "InvalidERC20List",
      "type": "error"
    },
    {
      "inputs": [],
      "name": "InvalidHeir",
      "type": "error"
    },
    {
      "inputs": [],
      "name": "InvalidHeirList",
      "type": "error"
    },
    {
      "inputs": [],
      "name": "InvalidNFTHeirParams",
      "type": "error"
    },
    {
      "inputs": [],
      "name": "NonexistERC20",
      "type": "error"
    },
    {
      "inputs": [],
      "name": "NonexistHeir",
      "type": "error"
    },
    {
      "inputs": [],
      "name": "NotConfirmed",
      "type": "error"
    },
    {
      "inputs": [],
      "name": "NotDead",
      "type": "error"
    },
    {
      "inputs": [],
      "name": "NotERC20",
      "type": "error"
    },
    {
      "inputs": [],
      "name": "NotHeir",
      "type": "error"
    },
    {
      "inputs": [],
      "name": "NotSettled",
      "type": "error"
    },
    {
      "inputs": [],
      "name": "TokenTransferFailed",
      "type": "error"
    },
    {
      "anonymous": false,
      "inputs": [
        {
          "indexed": true,
          "internalType": "address",
          "name": "safe",
          "type": "address"
        },
        {
          "indexed": true,
          "internalType": "address",
          "name": "token",
          "type": "address"
        },
        {
          "indexed": true,
          "internalType": "address",
          "name": "heir",
          "type": "address"
        },
        {
          "indexed": false,
          "internalType": "uint256",
          "name": "portion",
          "type": "uint256"
        }
      ],
      "name": "ERC20Claimed",
      "type": "event"
    },
    {
      "anonymous": false,
      "inputs": [
        {
          "indexed": true,
          "internalType": "address",
          "name": "safe",
          "type": "address"
        },
        {
          "indexed": false,
          "internalType": "address[]",
          "name": "erc20Tokens",
          "type": "address[]"
        }
      ],
      "name": "ERC20TokensSet",
      "type": "event"
    },
    {
      "anonymous": false,
      "inputs": [
        {
          "indexed": true,
          "internalType": "address",
          "name": "safe",
          "type": "address"
        },
        {
          "indexed": true,
          "internalType": "address",
          "name": "token",
          "type": "address"
        },
        {
          "indexed": true,
          "internalType": "address",
          "name": "heir",
          "type": "address"
        },
        {
          "indexed": false,
          "internalType": "uint256",
          "name": "tokenId",
          "type": "uint256"
        }
      ],
      "name": "ERC721Claimed",
      "type": "event"
    },
    {
      "anonymous": false,
      "inputs": [
        {
          "indexed": true,
          "internalType": "address",
          "name": "safe",
          "type": "address"
        },
        {
          "indexed": true,
          "internalType": "address",
          "name": "heir",
          "type": "address"
        },
        {
          "indexed": false,
          "internalType": "uint256",
          "name": "portion",
          "type": "uint256"
        }
      ],
      "name": "ETHClaimed",
      "type": "event"
    },
    {
      "anonymous": false,
      "inputs": [
        {
          "indexed": true,
          "internalType": "address",
          "name": "safe",
          "type": "address"
        },
        {
          "indexed": false,
          "internalType": "address[]",
          "name": "heirs",
          "type": "address[]"
        }
      ],
      "name": "HeirsAdded",
      "type": "event"
    },
    {
      "anonymous": false,
      "inputs": [
        {
          "indexed": true,
          "internalType": "address",
          "name": "safe",
          "type": "address"
        },
        {
          "indexed": false,
          "internalType": "address[]",
          "name": "heirs",
          "type": "address[]"
        }
      ],
      "name": "HeirsSet",
      "type": "event"
    },
    {
      "anonymous": false,
      "inputs": [
        {
          "indexed": true,
          "internalType": "address",
          "name": "safe",
          "type": "address"
        },
        {
          "indexed": false,
          "internalType": "address[]",
          "name": "nftAddress",
          "type": "address[]"
        },
        {
          "indexed": false,
          "internalType": "uint256[]",
          "name": "tokenId",
          "type": "uint256[]"
        },
        {
          "indexed": false,
          "internalType": "address[]",
          "name": "heir",
          "type": "address[]"
        }
      ],
      "name": "NFTHeirSet",
      "type": "event"
    },
    {
      "anonymous": false,
      "inputs": [
        {
          "indexed": false,
          "internalType": "uint256",
          "name": "timestamp",
          "type": "uint256"
        }
      ],
      "name": "Propose",
      "type": "event"
    },
    {
      "anonymous": false,
      "inputs": [
        {
          "indexed": true,
          "internalType": "address",
          "name": "safe",
          "type": "address"
        }
      ],
      "name": "Settled",
      "type": "event"
    },
    {
      "inputs": [
        {
          "internalType": "address[]",
          "name": "heir",
          "type": "address[]"
        }
      ],
      "name": "addERC20Heirs",
      "outputs": [],
      "stateMutability": "nonpayable",
      "type": "function"
    },
    {
      "inputs": [
        {
          "internalType": "address",
          "name": "safe",
          "type": "address"
        },
        {
          "internalType": "address",
          "name": "token",
          "type": "address"
        },
        {
          "internalType": "address",
          "name": "heir",
          "type": "address"
        }
      ],
      "name": "claimERC20",
      "outputs": [],
      "stateMutability": "nonpayable",
      "type": "function"
    },
    {
      "inputs": [
        {
          "internalType": "address",
          "name": "safe",
          "type": "address"
        },
        {
          "internalType": "address",
          "name": "nft",
          "type": "address"
        },
        {
          "internalType": "uint256",
          "name": "tokenId",
          "type": "uint256"
        },
        {
          "internalType": "address",
          "name": "heir",
          "type": "address"
        }
      ],
      "name": "claimERC721",
      "outputs": [],
      "stateMutability": "nonpayable",
      "type": "function"
    },
    {
      "inputs": [
        {
          "internalType": "address",
          "name": "safe",
          "type": "address"
        },
        {
          "internalType": "address",
          "name": "heir",
          "type": "address"
        }
      ],
      "name": "claimETH",
      "outputs": [],
      "stateMutability": "nonpayable",
      "type": "function"
    },
    {
      "inputs": [
        {
          "internalType": "address",
          "name": "",
          "type": "address"
        },
        {
          "internalType": "address",
          "name": "",
          "type": "address"
        },
        {
          "internalType": "address",
          "name": "",
          "type": "address"
        }
      ],
      "name": "claimed",
      "outputs": [
        {
          "internalType": "bool",
          "name": "",
          "type": "bool"
        }
      ],
      "stateMutability": "view",
      "type": "function"
    },
    {
      "inputs": [],
      "name": "dead_period",
      "outputs": [
        {
          "internalType": "uint256",
          "name": "",
          "type": "uint256"
        }
      ],
      "stateMutability": "view",
      "type": "function"
    },
    {
      "inputs": [
        {
          "internalType": "address",
          "name": "",
          "type": "address"
        },
        {
          "internalType": "address",
          "name": "",
          "type": "address"
        }
      ],
      "name": "finalBalancePer",
      "outputs": [
        {
          "internalType": "uint256",
          "name": "",
          "type": "uint256"
        }
      ],
      "stateMutability": "view",
      "type": "function"
    },
    {
      "inputs": [],
      "name": "legacyGuard",
      "outputs": [
        {
          "internalType": "contract IGuard",
          "name": "",
          "type": "address"
        }
      ],
      "stateMutability": "view",
      "type": "function"
    },
    {
      "inputs": [
        {
          "internalType": "address",
          "name": "",
          "type": "address"
        },
        {
          "internalType": "address",
          "name": "",
          "type": "address"
        },
        {
          "internalType": "uint256",
          "name": "",
          "type": "uint256"
        }
      ],
      "name": "nftHeir",
      "outputs": [
        {
          "internalType": "address",
          "name": "",
          "type": "address"
        }
      ],
      "stateMutability": "view",
      "type": "function"
    },
    {
      "inputs": [],
      "name": "proposal_time_lock",
      "outputs": [
        {
          "internalType": "uint256",
          "name": "",
          "type": "uint256"
        }
      ],
      "stateMutability": "view",
      "type": "function"
    },
    {
      "inputs": [
        {
          "internalType": "address",
          "name": "",
          "type": "address"
        }
      ],
      "name": "proposals",
      "outputs": [
        {
          "internalType": "uint256",
          "name": "",
          "type": "uint256"
        }
      ],
      "stateMutability": "view",
      "type": "function"
    },
    {
      "inputs": [
        {
          "internalType": "address",
          "name": "safe",
          "type": "address"
        }
      ],
      "name": "propose",
      "outputs": [],
      "stateMutability": "nonpayable",
      "type": "function"
    },
    {
      "inputs": [
        {
          "internalType": "address[]",
          "name": "heir",
          "type": "address[]"
        }
      ],
      "name": "setERC20Heirs",
      "outputs": [],
      "stateMutability": "nonpayable",
      "type": "function"
    },
    {
      "inputs": [
        {
          "internalType": "address[]",
          "name": "_erc20Tokens",
          "type": "address[]"
        }
      ],
      "name": "setERC20Tokens",
      "outputs": [],
      "stateMutability": "nonpayable",
      "type": "function"
    },
    {
      "inputs": [
        {
          "internalType": "address[]",
          "name": "nftAddress",
          "type": "address[]"
        },
        {
          "internalType": "uint256[]",
          "name": "tokenId",
          "type": "uint256[]"
        },
        {
          "internalType": "address[]",
          "name": "heir",
          "type": "address[]"
        }
      ],
      "name": "setNFTHeir",
      "outputs": [],
      "stateMutability": "nonpayable",
      "type": "function"
    },
    {
      "inputs": [
        {
          "internalType": "address",
          "name": "safe",
          "type": "address"
        }
      ],
      "name": "settle",
      "outputs": [],
      "stateMutability": "nonpayable",
      "type": "function"
    },
    {
      "inputs": [
        {
          "internalType": "address",
          "name": "",
          "type": "address"
        }
      ],
      "name": "settled",
      "outputs": [
        {
          "internalType": "bool",
          "name": "",
          "type": "bool"
        }
      ],
      "stateMutability": "view",
      "type": "function"
    }
  ],
  "bytecode": "0x60c060405234801561001057600080fd5b50604051611d96380380611d9683398101604081905261002f91610063565b600080546001600160a01b0319166001600160a01b03929092169190911790556301da9c0060805262ed4e0060a052610093565b60006020828403121561007557600080fd5b81516001600160a01b038116811461008c57600080fd5b9392505050565b60805160a051611cc96100cd600039600081816102750152610ab90152600081816102af015281816103c50152610a550152611cc96000f3fe608060405234801561001057600080fd5b506004361061011b5760003560e01c80636e039b20116100b25780639aec8e1d11610081578063dccb669311610066578063dccb6693146102fc578063e660b0661461030f578063f4fefcb01461033257600080fd5b80639aec8e1d146102aa578063cbf09d3e146102d157600080fd5b80636e039b2014610223578063890345551461025d57806393b9db5c1461027057806393db940f1461029757600080fd5b80633341b445116100ee5780633341b445146101a45780634370c03e146101d25780635d8ab98b146101e55780636a256b291461021057600080fd5b806301267951146101205780630b436a35146101355780631a5289a9146101485780632802848214610191575b600080fd5b61013361012e3660046117df565b610345565b005b610133610143366004611846565b6104af565b61017c610156366004611888565b600660209081526000938452604080852082529284528284209052825290205460ff1681565b60405190151581526020015b60405180910390f35b61013361019f366004611846565b61067d565b6101c46101b23660046117df565b60046020526000908152604090205481565b604051908152602001610188565b6101336101e03660046118cb565b6107a7565b6000546101f8906001600160a01b031681565b6040516001600160a01b039091168152602001610188565b61013361021e3660046117df565b6109bc565b6101f8610231366004611918565b60036020908152600093845260408085208252928452828420905282529020546001600160a01b031681565b61013361026b366004611954565b610b62565b6101c47f000000000000000000000000000000000000000000000000000000000000000081565b6101336102a5366004611846565b610d58565b6101c47f000000000000000000000000000000000000000000000000000000000000000081565b6101c46102df3660046119ee565b600560209081526000928352604080842090915290825290205481565b61013361030a3660046119ee565b610e91565b61017c61031d3660046117df565b60076020526000908152604090205460ff1681565b610133610340366004611888565b6111b3565b60008060009054906101000a90046001600160a01b03166001600160a01b03166394033ebd6040518163ffffffff1660e01b8152600401602060405180830381865afa158015610399573d6000803e3d6000fd5b505050506040513d601f19601f820116820180604052508101906103bd9190611a21565b9050426103ea7f000000000000000000000000000000000000000000000000000000000000000083611a50565b1061040857604051634a8f85e960e11b815260040160405180910390fd5b6001600160a01b03821660009081526004602052604090205481101561045a576040517f90c0d69600000000000000000000000000000000000000000000000000000000815260040160405180910390fd5b6001600160a01b038216600090815260046020908152604091829020429081905591519182527fa963894ed7d980b52c0f4b9a5a742f906a254ceb52c8717ca5ad628ded973b86910160405180910390a15050565b600a8111806104bc575080155b156104f3576040517fafade9bd00000000000000000000000000000000000000000000000000000000815260040160405180910390fd5b3360009081526002602052604081209061050c826115b2565b905060005b815181101561054f5761054682828151811061052f5761052f611a63565b6020026020010151846115c690919063ffffffff16565b50600101610511565b5060005b8381101561063357600085858381811061056f5761056f611a63565b905060200201602081019061058491906117df565b6001600160a01b0316036105c4576040517f5e81097b00000000000000000000000000000000000000000000000000000000815260040160405180910390fd5b6105f58585838181106105d9576105d9611a63565b90506020020160208101906105ee91906117df565b84906115e4565b61062b576040517f485dcf9f00000000000000000000000000000000000000000000000000000000815260040160405180910390fd5b600101610553565b50336001600160a01b03167fef072245167d97507f8017f62634f5ccb3f2b5cea0a3687667b46d49d746648f858560405161066f929190611ac0565b60405180910390a250505050565b600081900361069f576040516333d95d0d60e21b815260040160405180910390fd5b336000908152600160205260408120905b8281101561075e5760008484838181106106cc576106cc611a63565b90506020020160208101906106e191906117df565b6001600160a01b0316036107085760405163766ae75760e11b815260040160405180910390fd5b61073984848381811061071d5761071d611a63565b905060200201602081019061073291906117df565b83906115e4565b6107565760405163389304fd60e11b815260040160405180910390fd5b6001016106b0565b50336001600160a01b03167f9fe1d378a4bbe4b643e612e79b950a3254c7fac7801c73626e3ba3a75ac09086848460405161079a929190611ac0565b60405180910390a2505050565b6001600160a01b03841660009081526007602052604090205460ff166107e05760405163ba329a9b60e01b815260040160405180910390fd5b6001600160a01b0384811660009081526003602090815260408083208785168452825280832086845290915290205481169082161461084b576040517f8419e55000000000000000000000000000000000000000000000000000000000815260040160405180910390fd5b6040516001600160a01b038086166024830152821660448201526064810183905260009060840160408051601f198184030181529181526020820180517bffffffffffffffffffffffffffffffffffffffffffffffffffffffff167f23b872dd000000000000000000000000000000000000000000000000000000001790525163468721a760e01b81529091506001600160a01b0386169063468721a7906108fe90879060009086908290600401611afe565b6020604051808303816000875af115801561091d573d6000803e3d6000fd5b505050506040513d601f19601f820116820180604052508101906109419190611b72565b61095e5760405163022e258160e11b815260040160405180910390fd5b816001600160a01b0316846001600160a01b0316866001600160a01b03167f6564f48f177e41e345d2183fe4cec34dab8b183fcb99fb2193f5c3126c208031866040516109ad91815260200190565b60405180910390a45050505050565b60008060009054906101000a90046001600160a01b03166001600160a01b03166394033ebd6040518163ffffffff1660e01b8152600401602060405180830381865afa158015610a10573d6000803e3d6000fd5b505050506040513d601f19601f82011682018060405250810190610a349190611a21565b6001600160a01b038316600090815260046020526040902054909150610a7a7f000000000000000000000000000000000000000000000000000000000000000083611a50565b10610a9857604051634a8f85e960e11b815260040160405180910390fd5b6001600160a01b0382166000908152600460205260409020544290610ade907f000000000000000000000000000000000000000000000000000000000000000090611a50565b10610b15576040517fe471069a00000000000000000000000000000000000000000000000000000000815260040160405180910390fd5b6001600160a01b038216600081815260076020526040808220805460ff19166001179055517fefb6205dbe155ded2c6cd1c00ae5941f650b076f7ea0823645364b1aa1b418a49190a25050565b8415801590610b7057508483145b8015610b7b57508481145b610b9857604051632e93b16760e11b815260040160405180910390fd5b60005b85811015610d04576000878783818110610bb757610bb7611a63565b9050602002016020810190610bcc91906117df565b6001600160a01b03161480610c1057506000838383818110610bf057610bf0611a63565b9050602002016020810190610c0591906117df565b6001600160a01b0316145b15610c2e57604051632e93b16760e11b815260040160405180910390fd5b828282818110610c4057610c40611a63565b9050602002016020810190610c5591906117df565b33600090815260036020526040812090898985818110610c7757610c77611a63565b9050602002016020810190610c8c91906117df565b6001600160a01b03166001600160a01b031681526020019081526020016000206000878785818110610cc057610cc0611a63565b90506020020135815260200190815260200160002060006101000a8154816001600160a01b0302191690836001600160a01b03160217905550806001019050610b9b565b50336001600160a01b03167fcc77b46b919b3039716541ca4c5e19c912411847b33b0fa8ea84e716eda50405878787878787604051610d4896959493929190611b94565b60405180910390a2505050505050565b6000819003610d7a576040516333d95d0d60e21b815260040160405180910390fd5b33600090815260016020526040812090610d93826115b2565b905060005b8151811015610dbf57610db682828151811061052f5761052f611a63565b50600101610d98565b5060005b83811015610e55576000858583818110610ddf57610ddf611a63565b9050602002016020810190610df491906117df565b6001600160a01b031603610e1b5760405163766ae75760e11b815260040160405180910390fd5b610e308585838181106105d9576105d9611a63565b610e4d5760405163389304fd60e11b815260040160405180910390fd5b600101610dc3565b50336001600160a01b03167f088cca573e54e816f52336287e4d2a3bc710c258eb7dfeac1c92f67e77f6da7c858560405161066f929190611ac0565b6001600160a01b03821660009081526007602052604090205460ff16610eca5760405163ba329a9b60e01b815260040160405180910390fd5b6001600160a01b0382166000908152600160205260409020610eec81836115f9565b610f095760405163720dbb1760e11b815260040160405180910390fd5b6001600160a01b038316600090815260056020908152604080832073eeeeeeeeeeeeeeeeeeeeeeeeeeeeeeeeeeeeeeee84529091528120549003610f9f576001600160a01b03831631610f5b8261161b565b610f659082611c13565b6001600160a01b038516600090815260056020908152604080832073eeeeeeeeeeeeeeeeeeeeeeeeeeeeeeeeeeeeeeee8452909152902055505b6001600160a01b038316600090815260056020908152604080832073eeeeeeeeeeeeeeeeeeeeeeeeeeeeeeeeeeeeeeee845290915281205490819003611011576040517f6a12f10400000000000000000000000000000000000000000000000000000000815260040160405180910390fd5b6001600160a01b03808516600090815260066020908152604080832073eeeeeeeeeeeeeeeeeeeeeeeeeeeeeeeeeeeeeeee845282528083209387168352929052205460ff1615611074576040516317968e5360e31b815260040160405180910390fd5b6001600160a01b03808516600081815260066020908152604080832073eeeeeeeeeeeeeeeeeeeeeeeeeeeeeeeeeeeeeeee845282528083209488168352939052828120805460ff19166001179055915163468721a760e01b8152909163468721a7916110e7918791869190600401611c35565b6020604051808303816000875af1158015611106573d6000803e3d6000fd5b505050506040513d601f19601f8201168201806040525081019061112a9190611b72565b611160576040517fb12d13eb00000000000000000000000000000000000000000000000000000000815260040160405180910390fd5b826001600160a01b0316846001600160a01b03167f81bfb395a613b7b5eeaec6ac330051b8b723aa455649a52ecd5d0784b95c69d2836040516111a591815260200190565b60405180910390a350505050565b6001600160a01b03831660009081526007602052604090205460ff166111ec5760405163ba329a9b60e01b815260040160405180910390fd5b6001600160a01b038316600090815260026020526040902061120e90836115f9565b611244576040517fa84d2b9c00000000000000000000000000000000000000000000000000000000815260040160405180910390fd5b6001600160a01b038316600090815260016020526040902061126681836115f9565b6112835760405163720dbb1760e11b815260040160405180910390fd5b6001600160a01b0380851660009081526005602090815260408083209387168352929052908120549003611375576040517f70a082310000000000000000000000000000000000000000000000000000000081526001600160a01b038581166004830152600091908516906370a0823190602401602060405180830381865afa158015611314573d6000803e3d6000fd5b505050506040513d601f19601f820116820180604052508101906113389190611a21565b90506113438261161b565b61134d9082611c13565b6001600160a01b03808716600090815260056020908152604080832093891683529290522055505b6001600160a01b038085166000908152600560209081526040808320938716835292905290812054908190036113d7576040517f5d052a9300000000000000000000000000000000000000000000000000000000815260040160405180910390fd5b6001600160a01b038086166000908152600660209081526040808320888516845282528083209387168352929052205460ff1615611428576040516317968e5360e31b815260040160405180910390fd5b6001600160a01b03858116600081815260066020908152604080832089861684528252808320948816808452948252808320805460ff19166001179055805160248101959095526044808601879052815180870390910181526064909501815290840180517bffffffffffffffffffffffffffffffffffffffffffffffffffffffff167fa9059cbb000000000000000000000000000000000000000000000000000000001790525163468721a760e01b815263468721a7916114f39189919086908290600401611afe565b6020604051808303816000875af1158015611512573d6000803e3d6000fd5b505050506040513d601f19601f820116820180604052508101906115369190611b72565b6115535760405163022e258160e11b815260040160405180910390fd5b836001600160a01b0316856001600160a01b0316876001600160a01b03167ff15b4a917680e4fb479db7640331eb3db831672f5654e014110e0508a1a3badc856040516115a291815260200190565b60405180910390a4505050505050565b606060006115bf83611625565b9392505050565b60006115db836001600160a01b038416611681565b90505b92915050565b60006115db836001600160a01b038416611774565b6001600160a01b038116600090815260018301602052604081205415156115db565b60006115de825490565b60608160000180548060200260200160405190810160405280929190818152602001828054801561167557602002820191906000526020600020905b815481526020019060010190808311611661575b50505050509050919050565b6000818152600183016020526040812054801561176a5760006116a5600183611c6a565b85549091506000906116b990600190611c6a565b905081811461171e5760008660000182815481106116d9576116d9611a63565b90600052602060002001549050808760000184815481106116fc576116fc611a63565b6000918252602080832090910192909255918252600188019052604090208390555b855486908061172f5761172f611c7d565b6001900381819060005260206000200160009055905585600101600086815260200190815260200160002060009055600193505050506115de565b60009150506115de565b60008181526001830160205260408120546117bb575081546001818101845560008481526020808220909301849055845484825282860190935260409020919091556115de565b5060006115de565b80356001600160a01b03811681146117da57600080fd5b919050565b6000602082840312156117f157600080fd5b6115db826117c3565b60008083601f84011261180c57600080fd5b50813567ffffffffffffffff81111561182457600080fd5b6020830191508360208260051b850101111561183f57600080fd5b9250929050565b6000806020838503121561185957600080fd5b823567ffffffffffffffff81111561187057600080fd5b61187c858286016117fa565b90969095509350505050565b60008060006060848603121561189d57600080fd5b6118a6846117c3565b92506118b4602085016117c3565b91506118c2604085016117c3565b90509250925092565b600080600080608085870312156118e157600080fd5b6118ea856117c3565b93506118f8602086016117c3565b92506040850135915061190d606086016117c3565b905092959194509250565b60008060006060848603121561192d57600080fd5b611936846117c3565b9250611944602085016117c3565b9150604084013590509250925092565b6000806000806000806060878903121561196d57600080fd5b863567ffffffffffffffff8082111561198557600080fd5b6119918a838b016117fa565b909850965060208901359150808211156119aa57600080fd5b6119b68a838b016117fa565b909650945060408901359150808211156119cf57600080fd5b506119dc89828a016117fa565b979a9699509497509295939492505050565b60008060408385031215611a0157600080fd5b611a0a836117c3565b9150611a18602084016117c3565b90509250929050565b600060208284031215611a3357600080fd5b5051919050565b634e487b7160e01b600052601160045260246000fd5b808201808211156115de576115de611a3a565b634e487b7160e01b600052603260045260246000fd5b8183526000602080850194508260005b85811015611ab5576001600160a01b03611aa2836117c3565b1687529582019590820190600101611a89565b509495945050505050565b602081526000611ad4602083018486611a79565b949350505050565b60028110611afa57634e487b7160e01b600052602160045260246000fd5b9052565b6001600160a01b038516815260006020858184015260806040840152845180608085015260005b81811015611b415786810183015185820160a001528201611b25565b50600060a0828601015260a0601f19601f83011685010192505050611b696060830184611adc565b95945050505050565b600060208284031215611b8457600080fd5b815180151581146115bf57600080fd5b606081526000611ba860608301888a611a79565b82810360208401528581527f07ffffffffffffffffffffffffffffffffffffffffffffffffffffffffffffff861115611be057600080fd5b8560051b808860208401370182810360209081016040850152611c069082018587611a79565b9998505050505050505050565b600082611c3057634e487b7160e01b600052601260045260246000fd5b500490565b6001600160a01b03841681528260208201526080604082015260006080820152600060a082019050611ad46060830184611adc565b818103818111156115de576115de611a3a565b634e487b7160e01b600052603160045260246000fdfea26469706673582212208da12663c259f17e68a8aa0f4056dc31bdac814371c0c27d3b1ab1409bffd84164736f6c63430008130033",
  "linkReferences": {},
  "deployedLinkReferences": {}
}