{
  "_format": "hh-sol-artifact-1",
  "contractName": "LegacyModule",
  "sourceName": "contracts/LegacyModule.sol",
  "abi": [
    {
      "inputs": [
        {
          "internalType": "address",
          "name": "_legacyGuard",
          "type": "address"
        }
      ],
      "stateMutability": "nonpayable",
      "type": "constructor"
    },
    {
      "inputs": [],
      "name": "Claimed",
      "type": "error"
    },
    {
      "inputs": [
        {
          "internalType": "address",
          "name": "",
          "type": "address"
        }
      ],
      "name": "DuplicateERC20",
      "type": "error"
    },
    {
      "inputs": [
        {
          "internalType": "address",
          "name": "",
          "type": "address"
        }
      ],
      "name": "DuplicateHeir",
      "type": "error"
    },
    {
      "inputs": [],
      "name": "DuplicateProposal",
      "type": "error"
    },
    {
      "inputs": [],
      "name": "ETHTransferFailed",
      "type": "error"
    },
    {
      "inputs": [],
      "name": "InsufficientERC20",
      "type": "error"
    },
    {
      "inputs": [],
      "name": "InsufficientETH",
      "type": "error"
    },
    {
      "inputs": [],
      "name": "InvalidERC20",
      "type": "error"
    },
    {
      "inputs": [],
      "name": "InvalidERC20List",
      "type": "error"
    },
    {
      "inputs": [],
      "name": "InvalidHeir",
      "type": "error"
    },
    {
      "inputs": [],
      "name": "InvalidHeirList",
      "type": "error"
    },
    {
      "inputs": [],
      "name": "InvalidNFTHeirParams",
      "type": "error"
    },
    {
      "inputs": [],
      "name": "NonexistERC20",
      "type": "error"
    },
    {
      "inputs": [],
      "name": "NonexistHeir",
      "type": "error"
    },
    {
      "inputs": [],
      "name": "NotConfirmed",
      "type": "error"
    },
    {
      "inputs": [],
      "name": "NotDead",
      "type": "error"
    },
    {
      "inputs": [
        {
          "internalType": "address",
          "name": "",
          "type": "address"
        }
      ],
      "name": "NotERC20Heir",
      "type": "error"
    },
    {
      "inputs": [],
      "name": "NotHeir",
      "type": "error"
    },
    {
      "inputs": [
        {
          "internalType": "address",
          "name": "",
          "type": "address"
        }
      ],
      "name": "NotSetERC20",
      "type": "error"
    },
    {
      "inputs": [],
      "name": "NotSettled",
      "type": "error"
    },
    {
      "inputs": [],
      "name": "TokenTransferFailed",
      "type": "error"
    },
    {
      "inputs": [],
      "name": "TooManyERC20s",
      "type": "error"
    },
    {
      "inputs": [],
      "name": "TooManyHeirs",
      "type": "error"
    },
    {
      "inputs": [
        {
          "internalType": "address",
          "name": "",
          "type": "address"
        },
        {
          "internalType": "address",
          "name": "",
          "type": "address"
        },
        {
          "internalType": "uint256",
          "name": "",
          "type": "uint256"
        },
        {
          "internalType": "address",
          "name": "",
          "type": "address"
        }
      ],
      "name": "WrongNFTHeir",
      "type": "error"
    },
    {
      "anonymous": false,
      "inputs": [
        {
          "indexed": true,
          "internalType": "address",
          "name": "safe",
          "type": "address"
        },
        {
          "indexed": false,
          "internalType": "address[]",
          "name": "erc20s",
          "type": "address[]"
        }
      ],
      "name": "ERC20Added",
      "type": "event"
    },
    {
      "anonymous": false,
      "inputs": [
        {
          "indexed": true,
          "internalType": "address",
          "name": "safe",
          "type": "address"
        },
        {
          "indexed": true,
          "internalType": "address",
          "name": "token",
          "type": "address"
        },
        {
          "indexed": true,
          "internalType": "address",
          "name": "heir",
          "type": "address"
        },
        {
          "indexed": false,
          "internalType": "uint256",
          "name": "portion",
          "type": "uint256"
        }
      ],
      "name": "ERC20Claimed",
      "type": "event"
    },
    {
      "anonymous": false,
      "inputs": [
        {
          "indexed": true,
          "internalType": "address",
          "name": "safe",
          "type": "address"
        },
        {
          "indexed": false,
          "internalType": "address[]",
          "name": "erc20s",
          "type": "address[]"
        }
      ],
      "name": "ERC20Removed",
      "type": "event"
    },
    {
      "anonymous": false,
      "inputs": [
        {
          "indexed": true,
          "internalType": "address",
          "name": "safe",
          "type": "address"
        },
        {
          "indexed": false,
          "internalType": "address[]",
          "name": "erc20Tokens",
          "type": "address[]"
        }
      ],
      "name": "ERC20TokensSet",
      "type": "event"
    },
    {
      "anonymous": false,
      "inputs": [
        {
          "indexed": true,
          "internalType": "address",
          "name": "safe",
          "type": "address"
        },
        {
          "indexed": true,
          "internalType": "address",
          "name": "token",
          "type": "address"
        },
        {
          "indexed": true,
          "internalType": "address",
          "name": "heir",
          "type": "address"
        },
        {
          "indexed": false,
          "internalType": "uint256",
          "name": "tokenId",
          "type": "uint256"
        }
      ],
      "name": "ERC721Claimed",
      "type": "event"
    },
    {
      "anonymous": false,
      "inputs": [
        {
          "indexed": true,
          "internalType": "address",
          "name": "safe",
          "type": "address"
        },
        {
          "indexed": true,
          "internalType": "address",
          "name": "heir",
          "type": "address"
        },
        {
          "indexed": false,
          "internalType": "uint256",
          "name": "portion",
          "type": "uint256"
        }
      ],
      "name": "ETHClaimed",
      "type": "event"
    },
    {
      "anonymous": false,
      "inputs": [
        {
          "indexed": true,
          "internalType": "address",
          "name": "safe",
          "type": "address"
        },
        {
          "indexed": false,
          "internalType": "address[]",
          "name": "heirs",
          "type": "address[]"
        }
      ],
      "name": "HeirsAdded",
      "type": "event"
    },
    {
      "anonymous": false,
      "inputs": [
        {
          "indexed": true,
          "internalType": "address",
          "name": "safe",
          "type": "address"
        },
        {
          "indexed": false,
          "internalType": "address[]",
          "name": "heirs",
          "type": "address[]"
        }
      ],
      "name": "HeirsRemoved",
      "type": "event"
    },
    {
      "anonymous": false,
      "inputs": [
        {
          "indexed": true,
          "internalType": "address",
          "name": "safe",
          "type": "address"
        },
        {
          "indexed": false,
          "internalType": "address[]",
          "name": "heirs",
          "type": "address[]"
        }
      ],
      "name": "HeirsSet",
      "type": "event"
    },
    {
      "anonymous": false,
      "inputs": [
        {
          "indexed": true,
          "internalType": "address",
          "name": "safe",
          "type": "address"
        },
        {
          "indexed": false,
          "internalType": "address[]",
          "name": "nftAddress",
          "type": "address[]"
        },
        {
          "indexed": false,
          "internalType": "uint256[]",
          "name": "tokenId",
          "type": "uint256[]"
        },
        {
          "indexed": false,
          "internalType": "address[]",
          "name": "heir",
          "type": "address[]"
        }
      ],
      "name": "NFTHeirRemoved",
      "type": "event"
    },
    {
      "anonymous": false,
      "inputs": [
        {
          "indexed": true,
          "internalType": "address",
          "name": "safe",
          "type": "address"
        },
        {
          "indexed": false,
          "internalType": "address[]",
          "name": "nftAddress",
          "type": "address[]"
        },
        {
          "indexed": false,
          "internalType": "uint256[]",
          "name": "tokenId",
          "type": "uint256[]"
        },
        {
          "indexed": false,
          "internalType": "address[]",
          "name": "heir",
          "type": "address[]"
        }
      ],
      "name": "NFTHeirSet",
      "type": "event"
    },
    {
      "anonymous": false,
      "inputs": [
        {
          "indexed": false,
          "internalType": "uint256",
          "name": "timestamp",
          "type": "uint256"
        }
      ],
      "name": "Propose",
      "type": "event"
    },
    {
      "anonymous": false,
      "inputs": [
        {
          "indexed": true,
          "internalType": "address",
          "name": "safe",
          "type": "address"
        }
      ],
      "name": "Settled",
      "type": "event"
    },
    {
      "inputs": [
        {
          "internalType": "address[]",
          "name": "heir",
          "type": "address[]"
        }
      ],
      "name": "addERC20Heirs",
      "outputs": [],
      "stateMutability": "nonpayable",
      "type": "function"
    },
    {
      "inputs": [
        {
          "internalType": "address[]",
          "name": "_erc20Tokens",
          "type": "address[]"
        }
      ],
      "name": "addERC20Tokens",
      "outputs": [],
      "stateMutability": "nonpayable",
      "type": "function"
    },
    {
      "inputs": [
        {
          "internalType": "address",
          "name": "safe",
          "type": "address"
        },
        {
          "internalType": "address",
          "name": "token",
          "type": "address"
        },
        {
          "internalType": "address",
          "name": "heir",
          "type": "address"
        }
      ],
      "name": "claimERC20",
      "outputs": [],
      "stateMutability": "nonpayable",
      "type": "function"
    },
    {
      "inputs": [
        {
          "internalType": "address",
          "name": "safe",
          "type": "address"
        },
        {
          "internalType": "address",
          "name": "nft",
          "type": "address"
        },
        {
          "internalType": "uint256",
          "name": "tokenId",
          "type": "uint256"
        },
        {
          "internalType": "address",
          "name": "heir",
          "type": "address"
        }
      ],
      "name": "claimERC721",
      "outputs": [],
      "stateMutability": "nonpayable",
      "type": "function"
    },
    {
      "inputs": [
        {
          "internalType": "address",
          "name": "safe",
          "type": "address"
        },
        {
          "internalType": "address",
          "name": "heir",
          "type": "address"
        }
      ],
      "name": "claimETH",
      "outputs": [],
      "stateMutability": "nonpayable",
      "type": "function"
    },
    {
      "inputs": [
        {
          "internalType": "address",
          "name": "",
          "type": "address"
        },
        {
          "internalType": "address",
          "name": "",
          "type": "address"
        },
        {
          "internalType": "address",
          "name": "",
          "type": "address"
        }
      ],
      "name": "claimed",
      "outputs": [
        {
          "internalType": "bool",
          "name": "",
          "type": "bool"
        }
      ],
      "stateMutability": "view",
      "type": "function"
    },
    {
      "inputs": [],
      "name": "dead_period",
      "outputs": [
        {
          "internalType": "uint256",
          "name": "",
          "type": "uint256"
        }
      ],
      "stateMutability": "view",
      "type": "function"
    },
    {
      "inputs": [
        {
          "internalType": "address",
          "name": "",
          "type": "address"
        },
        {
          "internalType": "address",
          "name": "",
          "type": "address"
        }
      ],
      "name": "finalBalancePer",
      "outputs": [
        {
          "internalType": "uint256",
          "name": "",
          "type": "uint256"
        }
      ],
      "stateMutability": "view",
      "type": "function"
    },
    {
      "inputs": [
        {
          "internalType": "address",
          "name": "safe",
          "type": "address"
        },
        {
          "internalType": "address",
          "name": "heir",
          "type": "address"
        }
      ],
      "name": "isERC20Heir",
      "outputs": [
        {
          "internalType": "bool",
          "name": "",
          "type": "bool"
        }
      ],
      "stateMutability": "view",
      "type": "function"
    },
    {
      "inputs": [
        {
          "internalType": "address",
          "name": "safe",
          "type": "address"
        },
        {
          "internalType": "address",
          "name": "erc20",
          "type": "address"
        }
      ],
      "name": "isERC20Set",
      "outputs": [
        {
          "internalType": "bool",
          "name": "",
          "type": "bool"
        }
      ],
      "stateMutability": "view",
      "type": "function"
    },
    {
      "inputs": [],
      "name": "legacyGuard",
      "outputs": [
        {
          "internalType": "contract IGuard",
          "name": "",
          "type": "address"
        }
      ],
      "stateMutability": "view",
      "type": "function"
    },
    {
      "inputs": [
        {
          "internalType": "address",
          "name": "",
          "type": "address"
        },
        {
          "internalType": "address",
          "name": "",
          "type": "address"
        },
        {
          "internalType": "uint256",
          "name": "",
          "type": "uint256"
        }
      ],
      "name": "nftHeir",
      "outputs": [
        {
          "internalType": "address",
          "name": "",
          "type": "address"
        }
      ],
      "stateMutability": "view",
      "type": "function"
    },
    {
      "inputs": [],
      "name": "proposal_time_lock",
      "outputs": [
        {
          "internalType": "uint256",
          "name": "",
          "type": "uint256"
        }
      ],
      "stateMutability": "view",
      "type": "function"
    },
    {
      "inputs": [
        {
          "internalType": "address",
          "name": "",
          "type": "address"
        }
      ],
      "name": "proposals",
      "outputs": [
        {
          "internalType": "uint256",
          "name": "",
          "type": "uint256"
        }
      ],
      "stateMutability": "view",
      "type": "function"
    },
    {
      "inputs": [
        {
          "internalType": "address",
          "name": "safe",
          "type": "address"
        }
      ],
      "name": "propose",
      "outputs": [],
      "stateMutability": "nonpayable",
      "type": "function"
    },
    {
      "inputs": [
        {
          "internalType": "address[]",
          "name": "heir",
          "type": "address[]"
        }
      ],
      "name": "removeERC20Heirs",
      "outputs": [],
      "stateMutability": "nonpayable",
      "type": "function"
    },
    {
      "inputs": [
        {
          "internalType": "address[]",
          "name": "_erc20Tokens",
          "type": "address[]"
        }
      ],
      "name": "removeERC20Tokens",
      "outputs": [],
      "stateMutability": "nonpayable",
      "type": "function"
    },
    {
      "inputs": [
        {
          "internalType": "address[]",
          "name": "nftAddress",
          "type": "address[]"
        },
        {
          "internalType": "uint256[]",
          "name": "tokenId",
          "type": "uint256[]"
        },
        {
          "internalType": "address[]",
          "name": "heir",
          "type": "address[]"
        }
      ],
      "name": "removeNFTHeir",
      "outputs": [],
      "stateMutability": "nonpayable",
      "type": "function"
    },
    {
      "inputs": [
        {
          "internalType": "address[]",
          "name": "heir",
          "type": "address[]"
        }
      ],
      "name": "setERC20Heirs",
      "outputs": [],
      "stateMutability": "nonpayable",
      "type": "function"
    },
    {
      "inputs": [
        {
          "internalType": "address[]",
          "name": "_erc20Tokens",
          "type": "address[]"
        }
      ],
      "name": "setERC20Tokens",
      "outputs": [],
      "stateMutability": "nonpayable",
      "type": "function"
    },
    {
      "inputs": [
        {
          "internalType": "address[]",
          "name": "nftAddress",
          "type": "address[]"
        },
        {
          "internalType": "uint256[]",
          "name": "tokenId",
          "type": "uint256[]"
        },
        {
          "internalType": "address[]",
          "name": "heir",
          "type": "address[]"
        }
      ],
      "name": "setNFTHeir",
      "outputs": [],
      "stateMutability": "nonpayable",
      "type": "function"
    },
    {
      "inputs": [
        {
          "internalType": "address",
          "name": "safe",
          "type": "address"
        }
      ],
      "name": "settle",
      "outputs": [],
      "stateMutability": "nonpayable",
      "type": "function"
    },
    {
      "inputs": [
        {
          "internalType": "address",
          "name": "",
          "type": "address"
        }
      ],
      "name": "settled",
      "outputs": [
        {
          "internalType": "bool",
          "name": "",
          "type": "bool"
        }
      ],
      "stateMutability": "view",
      "type": "function"
    }
  ],
  "bytecode": "0x60c06040523480156200001157600080fd5b506040516200261338038062002613833981016040819052620000349162000064565b600080546001600160a01b0319166001600160a01b039290921691909117905560b4608052603c60a05262000096565b6000602082840312156200007757600080fd5b81516001600160a01b03811681146200008f57600080fd5b9392505050565b60805160a051612542620000d1600039600081816102fa0152610d77015260008181610334015281816104a00152610d1301526125426000f3fe608060405234801561001057600080fd5b506004361061018d5760003560e01c806393b9db5c116100e3578063cbf09d3e1161008c578063e660b06611610066578063e660b066146103e0578063f4fefcb014610403578063f7a9d8821461041657600080fd5b8063cbf09d3e1461038f578063dccb6693146103ba578063e485873d146103cd57600080fd5b8063c574ef19116100bd578063c574ef1914610356578063c79afe2814610369578063cb41d8ce1461037c57600080fd5b806393b9db5c146102f557806393db940f1461031c5780639aec8e1d1461032f57600080fd5b8063356c487c116101455780636a256b291161011f5780636a256b29146102955780636e039b20146102a857806389034555146102e257600080fd5b8063356c487c146102445780634370c03e146102575780635d8ab98b1461026a57600080fd5b80631a5289a9116101765780631a5289a9146101ba57806328028482146102035780633341b4451461021657600080fd5b806301267951146101925780630b436a35146101a7575b600080fd5b6101a56101a036600461203f565b610429565b005b6101a56101b53660046120a6565b61058a565b6101ee6101c83660046120e8565b600660209081526000938452604080852082529284528284209052825290205460ff1681565b60405190151581526020015b60405180910390f35b6101a56102113660046120a6565b61075e565b61023661022436600461203f565b60046020526000908152604090205481565b6040519081526020016101fa565b6101a56102523660046120a6565b610923565b6101a561026536600461212b565b610a6e565b60005461027d906001600160a01b031681565b6040516001600160a01b0390911681526020016101fa565b6101a56102a336600461203f565b610c83565b61027d6102b6366004612178565b60036020908152600093845260408085208252928452828420905282529020546001600160a01b031681565b6101a56102f03660046121b4565b610e20565b6102367f000000000000000000000000000000000000000000000000000000000000000081565b6101a561032a3660046120a6565b611016565b6102367f000000000000000000000000000000000000000000000000000000000000000081565b6101a56103643660046120a6565b611151565b6101ee61037736600461224e565b611264565b6101a561038a3660046121b4565b61128f565b61023661039d36600461224e565b600560209081526000928352604080842090915290825290205481565b6101a56103c836600461224e565b61158f565b6101a56103db3660046120a6565b6118b1565b6101ee6103ee36600461203f565b60076020526000908152604090205460ff1681565b6101a56104113660046120e8565b6119fa565b6101ee61042436600461224e565b611df9565b600080546040516313b95ded60e21b81526001600160a01b03848116600483015290911690634ee577b490602401602060405180830381865afa158015610474573d6000803e3d6000fd5b505050506040513d601f19601f820116820180604052508101906104989190612281565b9050426104c57f0000000000000000000000000000000000000000000000000000000000000000836122b0565b106104e357604051634a8f85e960e11b815260040160405180910390fd5b6001600160a01b038216600090815260046020526040902054811015610535576040517f90c0d69600000000000000000000000000000000000000000000000000000000815260040160405180910390fd5b6001600160a01b038216600090815260046020908152604091829020429081905591519182527fa963894ed7d980b52c0f4b9a5a742f906a254ceb52c8717ca5ad628ded973b86910160405180910390a15050565b601e811180610597575080155b156105b55760405163afade9bd60e01b815260040160405180910390fd5b336000908152600260205260408120906105ce82611e1b565b905060005b8151811015610611576106088282815181106105f1576105f16122c3565b602002602001015184611e2f90919063ffffffff16565b506001016105d3565b5060005b83811015610714576000858583818110610631576106316122c3565b9050602002016020810190610646919061203f565b6001600160a01b03160361066d57604051630eca12dd60e31b815260040160405180910390fd5b61069e858583818110610682576106826122c3565b9050602002016020810190610697919061203f565b8490611e44565b61070c578484828181106106b4576106b46122c3565b90506020020160208101906106c9919061203f565b6040517f52f3dab60000000000000000000000000000000000000000000000000000000081526001600160a01b0390911660048201526024015b60405180910390fd5b600101610615565b50336001600160a01b03167fef072245167d97507f8017f62634f5ccb3f2b5cea0a3687667b46d49d746648f8585604051610750929190612320565b60405180910390a250505050565b6000819003610780576040516333d95d0d60e21b815260040160405180910390fd5b336000908152600160205260409020600a8261079b83611e59565b6107a591906122b0565b11156107dd576040517f6196e4b800000000000000000000000000000000000000000000000000000000815260040160405180910390fd5b60005b828110156108da5760008484838181106107fc576107fc6122c3565b9050602002016020810190610811919061203f565b6001600160a01b0316036108385760405163766ae75760e11b815260040160405180910390fd5b61086984848381811061084d5761084d6122c3565b9050602002016020810190610862919061203f565b8390611e44565b6108d25783838281811061087f5761087f6122c3565b9050602002016020810190610894919061203f565b6040517f4bfbfa240000000000000000000000000000000000000000000000000000000081526001600160a01b039091166004820152602401610703565b6001016107e0565b50336001600160a01b03167f9fe1d378a4bbe4b643e612e79b950a3254c7fac7801c73626e3ba3a75ac090868484604051610916929190612320565b60405180910390a2505050565b6000819003610945576040516333d95d0d60e21b815260040160405180910390fd5b336000908152600160205260408120905b82811015610a325761098f848483818110610973576109736122c3565b9050602002016020810190610988919061203f565b8390611e63565b6109f8578383828181106109a5576109a56122c3565b90506020020160208101906109ba919061203f565b6040517fb1d886570000000000000000000000000000000000000000000000000000000081526001600160a01b039091166004820152602401610703565b610a29848483818110610a0d57610a0d6122c3565b9050602002016020810190610a22919061203f565b8390611e2f565b50600101610956565b50336001600160a01b03167f052656a1e989657d4a5f05546affbf4018d29620fb23b9b915e85f7c0de778f08484604051610916929190612320565b6001600160a01b03841660009081526007602052604090205460ff16610aa75760405163ba329a9b60e01b815260040160405180910390fd5b6001600160a01b03848116600090815260036020908152604080832087851684528252808320868452909152902054811690821614610b12576040517f8419e55000000000000000000000000000000000000000000000000000000000815260040160405180910390fd5b6040516001600160a01b038086166024830152821660448201526064810183905260009060840160408051601f198184030181529181526020820180517bffffffffffffffffffffffffffffffffffffffffffffffffffffffff167f23b872dd000000000000000000000000000000000000000000000000000000001790525163468721a760e01b81529091506001600160a01b0386169063468721a790610bc59087906000908690829060040161235e565b6020604051808303816000875af1158015610be4573d6000803e3d6000fd5b505050506040513d601f19601f82011682018060405250810190610c0891906123d2565b610c255760405163022e258160e11b815260040160405180910390fd5b816001600160a01b0316846001600160a01b0316866001600160a01b03167f6564f48f177e41e345d2183fe4cec34dab8b183fcb99fb2193f5c3126c20803186604051610c7491815260200190565b60405180910390a45050505050565b600080546040516313b95ded60e21b81526001600160a01b03848116600483015290911690634ee577b490602401602060405180830381865afa158015610cce573d6000803e3d6000fd5b505050506040513d601f19601f82011682018060405250810190610cf29190612281565b6001600160a01b038316600090815260046020526040902054909150610d387f0000000000000000000000000000000000000000000000000000000000000000836122b0565b10610d5657604051634a8f85e960e11b815260040160405180910390fd5b6001600160a01b0382166000908152600460205260409020544290610d9c907f0000000000000000000000000000000000000000000000000000000000000000906122b0565b10610dd3576040517fe471069a00000000000000000000000000000000000000000000000000000000815260040160405180910390fd5b6001600160a01b038216600081815260076020526040808220805460ff19166001179055517fefb6205dbe155ded2c6cd1c00ae5941f650b076f7ea0823645364b1aa1b418a49190a25050565b8415801590610e2e57508483145b8015610e3957508481145b610e5657604051632e93b16760e11b815260040160405180910390fd5b60005b85811015610fc2576000878783818110610e7557610e756122c3565b9050602002016020810190610e8a919061203f565b6001600160a01b03161480610ece57506000838383818110610eae57610eae6122c3565b9050602002016020810190610ec3919061203f565b6001600160a01b0316145b15610eec57604051632e93b16760e11b815260040160405180910390fd5b828282818110610efe57610efe6122c3565b9050602002016020810190610f13919061203f565b33600090815260036020526040812090898985818110610f3557610f356122c3565b9050602002016020810190610f4a919061203f565b6001600160a01b03166001600160a01b031681526020019081526020016000206000878785818110610f7e57610f7e6122c3565b90506020020135815260200190815260200160002060006101000a8154816001600160a01b0302191690836001600160a01b03160217905550806001019050610e59565b50336001600160a01b03167fcc77b46b919b3039716541ca4c5e19c912411847b33b0fa8ea84e716eda50405878787878787604051611006969594939291906123f4565b60405180910390a2505050505050565b600a811180611023575080155b15611041576040516333d95d0d60e21b815260040160405180910390fd5b3360009081526001602052604081209061105a82611e1b565b905060005b81518110156110865761107d8282815181106105f1576105f16122c3565b5060010161105f565b5060005b838110156111155760008585838181106110a6576110a66122c3565b90506020020160208101906110bb919061203f565b6001600160a01b0316036110e25760405163766ae75760e11b815260040160405180910390fd5b6110f7858583818110610682576106826122c3565b61110d5784848281811061087f5761087f6122c3565b60010161108a565b50336001600160a01b03167f088cca573e54e816f52336287e4d2a3bc710c258eb7dfeac1c92f67e77f6da7c8585604051610750929190612320565b60008190036111735760405163afade9bd60e01b815260040160405180910390fd5b336000908152600260205260408120905b82811015611228576111a1848483818110610973576109736122c3565b61120a578383828181106111b7576111b76122c3565b90506020020160208101906111cc919061203f565b6040517f63175ab10000000000000000000000000000000000000000000000000000000081526001600160a01b039091166004820152602401610703565b61121f848483818110610a0d57610a0d6122c3565b50600101611184565b50336001600160a01b03167f8819dc8fa45e8b62009e1d7cee2c970cf40b8b9bec2b3b1118218e1e86906dde8484604051610916929190612320565b6001600160a01b03821660009081526002602052604081206112869083611e63565b90505b92915050565b841580159061129d57508483145b80156112a857508481145b6112c557604051632e93b16760e11b815260040160405180910390fd5b60005b8581101561154b578282828181106112e2576112e26122c3565b90506020020160208101906112f7919061203f565b3360009081526003602052604081206001600160a01b03929092169190898985818110611326576113266122c3565b905060200201602081019061133b919061203f565b6001600160a01b03166001600160a01b03168152602001908152602001600020600087878581811061136f5761136f6122c3565b60209081029290920135835250810191909152604001600020546001600160a01b03161415806113ce575060008383838181106113ae576113ae6122c3565b90506020020160208101906113c3919061203f565b6001600160a01b0316145b1561149157338787838181106113e6576113e66122c3565b90506020020160208101906113fb919061203f565b86868481811061140d5761140d6122c3565b90506020020135858585818110611426576114266122c3565b905060200201602081019061143b919061203f565b6040517f37b5f6db0000000000000000000000000000000000000000000000000000000081526001600160a01b039485166004820152928416602484015260448301919091529091166064820152608401610703565b336000908152600360205260408120908888848181106114b3576114b36122c3565b90506020020160208101906114c8919061203f565b6001600160a01b03166001600160a01b0316815260200190815260200160002060008686848181106114fc576114fc6122c3565b6020908102929092013583525081019190915260400160002080547fffffffffffffffffffffffff000000000000000000000000000000000000000016905561154481612473565b90506112c8565b50336001600160a01b03167f6a2f7cd73f0a43ac830b3d6b2db4937c8ad75c7f2b33516db8db59100e6a6d92878787878787604051611006969594939291906123f4565b6001600160a01b03821660009081526007602052604090205460ff166115c85760405163ba329a9b60e01b815260040160405180910390fd5b6001600160a01b03821660009081526001602052604090206115ea8183611e63565b6116075760405163720dbb1760e11b815260040160405180910390fd5b6001600160a01b038316600090815260056020908152604080832073eeeeeeeeeeeeeeeeeeeeeeeeeeeeeeeeeeeeeeee8452909152812054900361169d576001600160a01b0383163161165982611e59565b611663908261248c565b6001600160a01b038516600090815260056020908152604080832073eeeeeeeeeeeeeeeeeeeeeeeeeeeeeeeeeeeeeeee8452909152902055505b6001600160a01b038316600090815260056020908152604080832073eeeeeeeeeeeeeeeeeeeeeeeeeeeeeeeeeeeeeeee84529091528120549081900361170f576040517f6a12f10400000000000000000000000000000000000000000000000000000000815260040160405180910390fd5b6001600160a01b03808516600090815260066020908152604080832073eeeeeeeeeeeeeeeeeeeeeeeeeeeeeeeeeeeeeeee845282528083209387168352929052205460ff1615611772576040516317968e5360e31b815260040160405180910390fd5b6001600160a01b03808516600081815260066020908152604080832073eeeeeeeeeeeeeeeeeeeeeeeeeeeeeeeeeeeeeeee845282528083209488168352939052828120805460ff19166001179055915163468721a760e01b8152909163468721a7916117e59187918691906004016124ae565b6020604051808303816000875af1158015611804573d6000803e3d6000fd5b505050506040513d601f19601f8201168201806040525081019061182891906123d2565b61185e576040517fb12d13eb00000000000000000000000000000000000000000000000000000000815260040160405180910390fd5b826001600160a01b0316846001600160a01b03167f81bfb395a613b7b5eeaec6ac330051b8b723aa455649a52ecd5d0784b95c69d2836040516118a391815260200190565b60405180910390a350505050565b60008190036118d35760405163afade9bd60e01b815260040160405180910390fd5b336000908152600260205260409020601e826118ee83611e59565b6118f891906122b0565b1115611930576040517f35cbb7b200000000000000000000000000000000000000000000000000000000815260040160405180910390fd5b60005b828110156119be57600084848381811061194f5761194f6122c3565b9050602002016020810190611964919061203f565b6001600160a01b03160361198b57604051630eca12dd60e31b815260040160405180910390fd5b6119a084848381811061084d5761084d6122c3565b6119b6578383828181106106b4576106b46122c3565b600101611933565b50336001600160a01b03167fded45e042302cea290e3b8ed12fd2bd0ed7c471b20027a95048021e557c93db18484604051610916929190612320565b6001600160a01b03831660009081526007602052604090205460ff16611a335760405163ba329a9b60e01b815260040160405180910390fd5b6001600160a01b0383166000908152600260205260409020611a559083611e63565b611a8b576040517fa84d2b9c00000000000000000000000000000000000000000000000000000000815260040160405180910390fd5b6001600160a01b0383166000908152600160205260409020611aad8183611e63565b611aca5760405163720dbb1760e11b815260040160405180910390fd5b6001600160a01b0380851660009081526005602090815260408083209387168352929052908120549003611bbc576040517f70a082310000000000000000000000000000000000000000000000000000000081526001600160a01b038581166004830152600091908516906370a0823190602401602060405180830381865afa158015611b5b573d6000803e3d6000fd5b505050506040513d601f19601f82011682018060405250810190611b7f9190612281565b9050611b8a82611e59565b611b94908261248c565b6001600160a01b03808716600090815260056020908152604080832093891683529290522055505b6001600160a01b03808516600090815260056020908152604080832093871683529290529081205490819003611c1e576040517f5d052a9300000000000000000000000000000000000000000000000000000000815260040160405180910390fd5b6001600160a01b038086166000908152600660209081526040808320888516845282528083209387168352929052205460ff1615611c6f576040516317968e5360e31b815260040160405180910390fd5b6001600160a01b03858116600081815260066020908152604080832089861684528252808320948816808452948252808320805460ff19166001179055805160248101959095526044808601879052815180870390910181526064909501815290840180517bffffffffffffffffffffffffffffffffffffffffffffffffffffffff167fa9059cbb000000000000000000000000000000000000000000000000000000001790525163468721a760e01b815263468721a791611d3a918991908690829060040161235e565b6020604051808303816000875af1158015611d59573d6000803e3d6000fd5b505050506040513d601f19601f82011682018060405250810190611d7d91906123d2565b611d9a5760405163022e258160e11b815260040160405180910390fd5b836001600160a01b0316856001600160a01b0316876001600160a01b03167ff15b4a917680e4fb479db7640331eb3db831672f5654e014110e0508a1a3badc85604051611de991815260200190565b60405180910390a4505050505050565b6001600160a01b03821660009081526001602052604081206112869083611e63565b60606000611e2883611e85565b9392505050565b6000611286836001600160a01b038416611ee1565b6000611286836001600160a01b038416611fd4565b6000611289825490565b6001600160a01b03811660009081526001830160205260408120541515611286565b606081600001805480602002602001604051908101604052809291908181526020018280548015611ed557602002820191906000526020600020905b815481526020019060010190808311611ec1575b50505050509050919050565b60008181526001830160205260408120548015611fca576000611f056001836124e3565b8554909150600090611f19906001906124e3565b9050818114611f7e576000866000018281548110611f3957611f396122c3565b9060005260206000200154905080876000018481548110611f5c57611f5c6122c3565b6000918252602080832090910192909255918252600188019052604090208390555b8554869080611f8f57611f8f6124f6565b600190038181906000526020600020016000905590558560010160008681526020019081526020016000206000905560019350505050611289565b6000915050611289565b600081815260018301602052604081205461201b57508154600181810184556000848152602080822090930184905584548482528286019093526040902091909155611289565b506000611289565b80356001600160a01b038116811461203a57600080fd5b919050565b60006020828403121561205157600080fd5b61128682612023565b60008083601f84011261206c57600080fd5b50813567ffffffffffffffff81111561208457600080fd5b6020830191508360208260051b850101111561209f57600080fd5b9250929050565b600080602083850312156120b957600080fd5b823567ffffffffffffffff8111156120d057600080fd5b6120dc8582860161205a565b90969095509350505050565b6000806000606084860312156120fd57600080fd5b61210684612023565b925061211460208501612023565b915061212260408501612023565b90509250925092565b6000806000806080858703121561214157600080fd5b61214a85612023565b935061215860208601612023565b92506040850135915061216d60608601612023565b905092959194509250565b60008060006060848603121561218d57600080fd5b61219684612023565b92506121a460208501612023565b9150604084013590509250925092565b600080600080600080606087890312156121cd57600080fd5b863567ffffffffffffffff808211156121e557600080fd5b6121f18a838b0161205a565b9098509650602089013591508082111561220a57600080fd5b6122168a838b0161205a565b9096509450604089013591508082111561222f57600080fd5b5061223c89828a0161205a565b979a9699509497509295939492505050565b6000806040838503121561226157600080fd5b61226a83612023565b915061227860208401612023565b90509250929050565b60006020828403121561229357600080fd5b5051919050565b634e487b7160e01b600052601160045260246000fd5b808201808211156112895761128961229a565b634e487b7160e01b600052603260045260246000fd5b8183526000602080850194508260005b85811015612315576001600160a01b0361230283612023565b16875295820195908201906001016122e9565b509495945050505050565b6020815260006123346020830184866122d9565b949350505050565b6002811061235a57634e487b7160e01b600052602160045260246000fd5b9052565b6001600160a01b038516815260006020858184015260806040840152845180608085015260005b818110156123a15786810183015185820160a001528201612385565b50600060a0828601015260a0601f19601f830116850101925050506123c9606083018461233c565b95945050505050565b6000602082840312156123e457600080fd5b81518015158114611e2857600080fd5b60608152600061240860608301888a6122d9565b82810360208401528581527f07ffffffffffffffffffffffffffffffffffffffffffffffffffffffffffffff86111561244057600080fd5b8560051b80886020840137018281036020908101604085015261246690820185876122d9565b9998505050505050505050565b6000600182016124855761248561229a565b5060010190565b6000826124a957634e487b7160e01b600052601260045260246000fd5b500490565b6001600160a01b03841681528260208201526080604082015260006080820152600060a082019050612334606083018461233c565b818103818111156112895761128961229a565b634e487b7160e01b600052603160045260246000fdfea2646970667358221220579a0583afbccfa722d530abf5ec82c74451a186ae4c5ff2a76b18770b22a65964736f6c63430008130033",
  "linkReferences": {},
  "deployedLinkReferences": {}
}